:020000040800F2
:10000000C0D90020E5920008ED920008EF920008A8
:10001000F1920008F3920008F59200080000000039
:10002000000000000000000000000000F79200083F
:10003000F992000800000000FF780008177A000815
:10004000FF920008FF920008FF920008FF9200084C
:10005000FF920008FF920008FF920008FF9200083C
:10006000FF920008FF920008FF920008FF9200082C
:10007000FF920008FF9200082BEF0008DBF3000856
:10008000FF920008FBEA0008FF920008FF920008B8
:10009000FF920008FF920008FF920008FF920008FC
:1000A000FF920008FF920008FF920008FF920008EC
:1000B000FF920008FF920008FF920008FF920008DC
:1000C000FF920008FF920008FF920008FF920008CC
:1000D000FF92000887E700082FEC000861F0000895
:1000E000FF920008FF920008FF920008FF920008AC
:1000F000FF920008FF920008FF920008FF9200089C
:10010000FF920008FF920008FF920008FF9200088B
:100110000FF50008FF920008FF920008FF92000808
:10012000FF920008FF920008FF920008FF9200086B
:10013000FF920008FF920008FF920008FF9200085B
:10014000FF920008FF920008FF920008FF9200084B
:10015000FF920008FF92000851E60008FF92000895
:10016000FF920008FF920008FF920008FF9200082B
:10017000FF920008FF920008FF920008FF9200081B
:10018000FF92000800F002F800F05AF80AA090E888
:10019000000C82448344AAF10107DA4501D100F042
:1001A0004FF8AFF2090EBAE80F0013F0010F18BFB5
:1001B000FB1A43F0010318476CFD00008CFD0000A2
:1001C0000A444FF0000C10F8013B13F0070408BF7D
:1001D00010F8014B1D1108BF10F8015B641E05D01B
:1001E00010F8016B641E01F8016BF9D113F0080FD0
:1001F0001EBF10F8014BAD1C0C1B09D16D1E58BF62
:1002000001F801CBFAD505E014F8016B01F8016B98
:100210006D1EF9D59142D6D370470000002300240B
:1002200000250026103A28BF78C1FBD8520728BF06
:1002300030C148BF0B6070471FB51FBD10B510BD62
:100240000FF04AFB1146FFF7F7FF00F01AF80FF026
:1002500068FB03B4FFF7F2FF03BC0FF06DFB000077
:1002600010B506F0F3F806F0F8F810BD00F063F8EA
:1002700001F0CEFE04F031FB02E0322005F0B9FCC3
:10028000FBE7002407F01AFB0446FFF7E9FF04F040
:10029000CBFB06F018F90A23084A0021AFF233001D
:1002A00006F0F3F8204607F00DFB06F006F902E031
:1002B0000A2005F09EFCFBE7704700008821002023
:1002C00001202B4908700320487025200881294807
:1002D0004860002008832849086070472548C06AA4
:1002E00000687047012022490877012120484177A2
:1002F0000621818421490162002181860020204954
:10030000086070471D48C06A00687047012018499E
:1003100081F838000221164880F839100621A0F82B
:1003200040101849C1630021A0F8501070471548CB
:10033000C06A0068704710B5FFF7C2FFFFF7D2FF31
:10034000FFF7E4FF0723104A09491C310F4808F062
:1003500049FC08230E4A06490C4808F043FC0523D3
:100360000C4A03493831094808F03CFC10BD000034
:100370008C2100200400002038090020F406002011
:10038000400900201808002020530020DDDA000872
:10039000DC390020CC6B0020F94A06CAC0E9001203
:1003A00070470EB5F74A07CA8DE807004FF4FA61A7
:1003B000F54805F006FC012809D10021F24805F0B6
:1003C00000FC24200290694600200DF02FFA0EBD9B
:1003D0003EB5EC4A0C3207CA8DE807000024EB4812
:1003E000007811282DD2DFE800F0092D4C6B8AA986
:1003F000C8F1EFEEEDECEBEAE9E8E700E44801686C
:10040000E44805F0DEFB01281BD1E348007810F03A
:10041000010F11D0E0480078C0F3C00060B9DE4899
:10042000006820F00100DC490860012401200290EE
:100430000021D84805F0C5FBD4480078401CD349BA
:10044000087006E2D2480168D24805F0BAFB0128DC
:1004500016D1D1480078C0F3400060B1CE480068A2
:1004600020F00200CC490860012404200290002101
:10047000C84805F0A6FBC5480078401CC349087071
:10048000E7E1C3480168C34805F09BFB012816D18A
:10049000C1480078C0F3800060B1BF48006820F018
:1004A0000400BD4908600124062002900021B948DB
:1004B00005F087FBB5480078401CB4490870C8E1D6
:1004C000B3480168B34805F07CFB012816D1B24857
:1004D0000078C0F3C00060B1AF48006820F00800A9
:1004E000AD4908600124082002900021A94805F0C8
:1004F00068FBA6480078401CA4490870A9E1A448FC
:100500000168A44805F05DFB012816D1A2480078D7
:10051000C0F3001060B1A048006820F010009E49B0
:10052000086001240A20029000219A4805F049FB46
:1005300096480078401C954908708AE19448016803
:10054000944805F03EFB012816D193480078C0F38B
:10055000401060B19048006820F020008E4908608B
:1005600001240C20029000218A4805F02AFB8748CC
:100570000078401C854908706BE185480168854812
:1005800005F01FFB012816D183480078C0F38010C6
:1005900060B18148006820F040007F490860012474
:1005A0000F20029000217B4805F00BFB7748007874
:1005B000401C764908704CE12EE10EE1EEE0BFE010
:1005C0009FE07FE05FE03FE01FE0FFE770480168E9
:1005D000704805F0F6FA012816D16F480078C0F38C
:1005E000C01060B16C48006820F080006A49086063
:1005F0000124112002900021664805F0E2FA6348C8
:100600000078401C6149087023E161480168614835
:1006100005F0D7FA012816D15F480088C0F3002002
:1006200060B15D48006820F480705B490860012477
:10063000132002900021574805F0C3FA5348007870
:10064000401C5249087004E151480168514805F0C6
:10065000B8FA012816D150480088C0F3402060B194
:100660004D48006820F400704B49086001241520B3
:1006700002900021474805F0A4FA44480078401C45
:1006800042490870E5E042480168424805F099FA9D
:10069000012816D140480088C0F3802060B13E4850
:1006A000006820F480603C49086001241720029013
:1006B0000021384805F085FA34480078401C334959
:1006C0000870C6E032480168324805F07AFA01281D
:1006D00016D131480088C0F3C02060B12E480068B0
:1006E00020F400602C4908600124192002900021A8
:1006F000284805F066FA25480078401C2349087010
:10070000A7E023480168234805F05BFA012816D1C9
:1007100021480088C0F3003060B11F48006820F411
:1007200080501D49086001241B20029000211948B7
:1007300005F047FA15480078401C1449087088E015
:1007400013480168134805F03CFA012816D11248F5
:100750000088C0F3403060B10F48006820F40050BA
:100760000D49086001241D2002900021094805F070
:1007700028FA06480078401C0449087069E0000027
:10078000A8090020E0FB00085409002058090020B7
:10079000600900205C090020C4090020F8480168B5
:1007A000F84805F00EFA012816D1F7480088C0F382
:1007B000803060B1F448006820F48040F24908605D
:1007C00001241F2002900021EE4805F0FAF9EF48BD
:1007D0000078401CED4908703BE0E9480168E948B1
:1007E00005F0EFF9012816D1E7480088C0F3C030C2
:1007F00060B1E548006820F40040E3490860012446
:10080000262002900021DF4805F0DBF9DF48007860
:10081000401CDE4908701CE0D9480168D94805F041
:10082000D0F9012814D1D8480068C0F3004060B165
:10083000D548006820F48030D3490860012428207E
:1008400002900021CF4805F0BCF90020CF49087084
:1008500000BF00BF012C03D1694600200CF0E6FF69
:100860003EBD1FB5CA4A07CA01AB07C3C948407895
:1008700020B101280ED0022833D119E001F09EFCEE
:1008800001A900200CF0D2FFC2484078401CC149A9
:1008900048702AE001F0E0FC0420029001A9002049
:1008A0000CF0C4FFBB484078401CBA4948701CE0BB
:1008B00041F28831B84805F084F970B10021B6489A
:1008C00005F07FF9CA200090009802F0E4FA1B209E
:1008D000029001A900200CF0A9FF0020AD4948704A
:1008E00003E00020AB49487000BF00BFAB48007870
:1008F000022802D10020A94908701FBD30B591B06F
:10090000442168460EF0BEFF002403F0DEFC0446DE
:10091000012004EB4401A24A126802F8210004EB12
:1009200044009F49096801EB80008472684604F026
:1009300019FA04EB44009A49096801EB8000DDF8DC
:10094000021040F8011FDDF80610416002F0B6FC0D
:1009500005462A460021204604F0F9FB914800682C
:100960000078401C8F490968087011B030BD30B55F
:100970008DB0874A0C3207CA0AAB07C300241C217A
:1009800003A80EF07FFF83484078062874D2DFE882
:1009900000F003256385A3AF0021834805F011F91A
:1009A00002207E490870002004F0EAF90020ADF82A
:1009B00024000A2207A968460EF008FF03A80FC802
:1009C00002F05BFB2A200B900AA900200CF02EFFFE
:1009D00070484078401C6F494870A9E000210846E3
:1009E00004F0A1F9012004F0CBF90446032C01D056
:1009F000022C03D1002004F0C3F92CE0012C15D106
:100A0000002004F0BDF90720ADF824000A2207A950
:100A100068460EF0DBFE03A80FC802F02EFB2A206A
:100A20000B900AA900200CF001FF14E0042C12D155
:100A3000002004F07CF9002004F0A2F902F03EFC52
:100A4000012803D104205349487004E051484078FC
:100A5000401C504948706BE00121002004F063F90C
:100A6000012004F08DF90446032C01D0022C04D19E
:100A7000002004F085F910E059E0042C0DD101208C
:100A800004F055F9002004F07BF9002004F053FA3B
:100A900040484078401C3F49487049E0012100200F
:100AA00004F041F9012004F046FA0446032C01D079
:100AB000022C03D1002004F063F90CE0042C0AD1CD
:100AC000012004F034F9002004F035FA3148407870
:100AD000401C304948702BE020200B900AA90120CF
:100AE0000CF0A4FE2B484078401C2A4948701FE0B7
:100AF00004F00DF9B8B1FFF701FF00200B901920A9
:100B000001F09FFA0AA900200CF090FE21484078DD
:100B1000401C204948701C48006820F0080008303C
:100B20001949086002E004201A49487000E000BF3B
:100B300000BF41F288311C4805F043F888B100201D
:100B4000164908700CF0B0FC054601F07AFA002056
:100B50000B900AA90CF06AFE002004F011F904F0D1
:100B6000DEF80DB030BD3EB5094A183207CA8DE82F
:100B70000700002407484078C0B101283DD11FE09C
:100B8000600900205C090020C409002058090020E9
:100B9000F8FB0008A809002064090020B80900201B
:100BA000BC090020C0090020680900206946012016
:100BB0000CF03CFEF5484078401CF44948701DE0BC
:100BC00004F0A5F8A8B904F0AAF80020F0490870CC
:100BD0000CF06AFC0446204601F033FA0020019034
:100BE00069460CF023FEE9484078401CE74948700C
:100BF00002E00020E549487000E000BF00BF3EBDB4
:100C000010B58CB0E34A07CA09AB07C3142104A886
:100C10000EF038FE00240020009001900290039016
:100C2000DA48407805287CD2DFE800F0031222334E
:100C30003F000020D849088001F041FB09A90020AD
:100C40000CF0F4FDD1484078401CD0494870B5E024
:100C5000D148008801F016FC08200A9009A900205C
:100C60000CF0E4FDC9484078401CC8494870A5E034
:100C700001F098FB06200A9009A900200CF0D6FD8F
:100C8000C64801F0B1FBC1484078401CBF494870DC
:100C900094E007200A9009A900200CF0C7FDBB488A
:100CA0004078401CB949487088E004A801F09CFBDA
:100CB000082206A9B94808300EF017FDB0B101F0BE
:100CC0000CFBB648069981600799C16005200A901F
:100CD00009A900200CF0AAFD02E0032004F089FF1E
:100CE000002108460CF005FE0028F6D101F084FB37
:100CF00000285ED002E00A2004F07BFF00210846B5
:100D00000CF0F7FD0028F6D1684602F0B2FC08228C
:100D1000A34906A80EF0E9FC38B10822694606A8E6
:100D200000E04AE00EF0E1FC80B9132001F089F9FF
:100D300000200A9009A90CF079FD0020964908804E
:100D400092484078401C9149487035E00822954906
:100D500006A80EF0CAFC28B1082202A906A80EF0C7
:100D6000C4FC00BB03F08DFA01280BD0022807D089
:100D7000032809D1002403F0FDFFFFF7BFFD03E0C6
:100D8000142401E0152400BF00BF204601F059F9EA
:100D900000200A9009A90CF049FD7C484078401CCD
:100DA0007A49487008E001207B49088077494870FB
:100DB00002E003207549487000E000BF00BF0CB09E
:100DC00010BD00B587B0734A6C3207CA04AB07C3C5
:100DD00000200390029074A000680190734800788E
:100DE00020B1012811D0022839D118E0039802F06F
:100DF00001FA2C20059004A900200CF017FD6B4887
:100E00000078401C694908702AE004A900200CF011
:100E10000DFD66480078401C6449087020E002F02F
:100E2000EFF90390BDF80C00012814D100205F49B0
:100E30000870564948700846007813280ED101986A
:100E40000290029802F0A0FC02F0A3FC002101A88D
:100E500003F016FE02E001205449087000E000BFD4
:100E600000BF07B000BD10B598B04A480C30D0E9BB
:100E700000128068CDE91512179000201190129091
:100E8000139014900F90109049A207CA0CAB07C39F
:100E90000020089009900A900B900590069007900A
:100EA00004903A4840780A286FD2DFE800F0051A2B
:100EB00026323E4A5662879302F061FC049000217C
:100EC00004A803F0DDFD02F0B8FC0920169015A976
:100ED00000200CF0ABFC2D484078401C2B4948709A
:100EE000D4E10B20169015A900200CF09FFC274898
:100EF0004078401C25494870C8E10D20169015A97E
:100F000000200CF093FC21484078401C1F49487099
:100F1000BCE10E20169015A900200CF087FC1B48A0
:100F20004078401C19494870B0E11020169015A96E
:100F300000200CF07BFC15484078401C1349487099
:100F4000A4E10C20169015A900200CF06FFC0F48AE
:100F50004078401C0D49487098E10F20169015A963
:100F600000200CF063FC09484078401C0749487099
:100F70008CE11120169015A900200CF057FC0348B5
:100F80004078401C0149487080E17EE1A8090020BA
:100F9000B80900201CFC00086C090020B87C002067
:100FA0006E09002076090020FFFFFFFF9109002055
:100FB0001F1C1F1E1F1E1F1F1E1F1E1F0A201690F4
:100FC00015A900200CF032FCF9484078401CF84983
:100FD00048705BE101F01FFB10B901F0E2FAA8B123
:100FE0000B20169015A900200CF020FC02E00A202E
:100FF00004F0FFFD002108460CF07BFC0028F6D130
:101000000D20169015A900200CF010FC01F0A4FB97
:1010100018B901F06BFB00283ED001F09AFB41F2B9
:101020008831884202DC01F076FB30B301F073FBBB
:1010300038B12B2001F005F80020169015A90CF00E
:10104000F5FB02F05EFA044601F080FB08A802F00E
:10105000EDF908A801F038FB02E00A2004F0C9FD10
:10106000002108460CF045FC0028F6D10E20169011
:1010700015A900200CF0DAFB0EE001F06AFB044633
:1010800002F042FA02F043FA08A801F026FB08A891
:1010900002F0D5F902F0DCF901F0F3FB30B301F016
:1010A000EDFBB0F5167F1ADD02F087FA044601F079
:1010B000E2FB02F064FB039001F083FB02E00A20F4
:1010C00004F097FD002108460CF013FC0028F6D12F
:1010D0001020169015A900200CF0A8FB06E001F0E6
:1010E000CDFB044602F06CFA02F06DFA01F07BFBD6
:1010F00090B301F097FBD0B902F05FFA044601F01B
:10110000BAFB02F03CFB039001F05BFB02E00A201B
:1011100004F06FFD002108460CF0EBFB0028F6D12F
:101120001020169015A900200CF080FB14E001A8F7
:1011300001F03FFB01A807C805AB07C3082204A9BB
:1011400005A804F04AFE049802F01EFB02F021FB01
:10115000002104A803F094FC01F0D8F900287BD00A
:1011600001F0C5F911A801F0C9F911A8007A3038C9
:1011700011A909893022C2EB212101EB810100EB89
:10118000410080B2ADF83C00BDF84E003038BDF8EB
:101190004E10C2EB212101EB810100EB4100C0B2F6
:1011A0008DF83E00BDF850003038BDF85010C2EB4D
:1011B000212101EB810100EB4100C0B28DF83F001D
:1011C000BDF844003038BDF84410C2EB212101EBDA
:1011D000810100EB4100C0B28DF84000BDF846002F
:1011E0003038BDF84610C2EB212101EB810100EB44
:1011F0004100C0B28DF84100BDF848003038BDF85C
:101200004810C2EB212101EB810100EB4100C0B28B
:101210008DF842009DF8400018281ADA9DF8410028
:101220003C2816DA9DF842003C2812DA9DF83E0070
:1012300078B19DF83E000C280BDC9DF83F0040B1D2
:101240009DF83F109DF83E00401E0CAA105C8142A4
:1012500013DD01F02EF903E013E00A2004F0C9FCCD
:10126000002108460CF045FB0028F6D10920169015
:1012700015A900200CF0DAFA03E0DDE90F0105F012
:101280004BF905204A49487000E000BF00BFFFF756
:1012900098FD18B010BD70B592B0002420210AA8A6
:1012A0000EF0F0FA434A07CA07AB07C300254048CF
:1012B000407830B101280DD002285AD003287DD1C2
:1012C00064E000203C49088039484078401C384997
:1012D00048709AE0002423E002E00A2004F089FC30
:1012E000002108460CF005FB0028F6D13249098898
:1012F000214488B20AA903F0AFFF40B12E4800880C
:101300002044401C81B20AA801F0EEFA01E001F08D
:10131000E5FA099407A900200CF088FA601CC4B211
:101320000A2CD9DB03F098FE08B9012006E003F08F
:1013300093FE401E0A2190FBF1F0401C85B21E482E
:1013400000880A2190FBF1F0401C86B200231A4667
:101350002946304601F0C9FC13200890002009906E
:1013600007A90CF063FA12484078401C10494870F5
:101370004BE0142008900020099007A90CF056FAC1
:101380000B484078401C0A4948703EE00DF11A01B4
:1013900006A801F0C4FCBDF81800B8B106480088E2
:1013A0000A280CDD044800880A380349088009E04F
:1013B000A809002034FC00087E09002021E000205C
:1013C000F84908800120F849487019E0BDF81A0072
:1013D00098B103F041FEF34909880A31884208DDDB
:1013E000F04800880A30EF4908800120EE49487033
:1013F00006E00220EC49487002E00220EA49487009
:1014000003E00020E849487000BF00BF12B070BD83
:101410003EB5E64A07CA8DE80700E348407848B978
:101420000021E34804F0CDFBDF484078401CDE4952
:10143000487000E000BF00BF4FF4FA61DC4804F0E0
:10144000C0FB60B10021DA4804F0BBFB0CF02CF8C3
:10145000044600F0F6FD694600200CF0E7F93EBDB9
:101460000EB5D24A0C3207CA8DE80700CE48407844
:1014700020B1012812D0022839D11BE00021CD482B
:1014800004F09FFB01F088FC694600200CF0CEF9C7
:10149000C5484078401CC449487029E01620019096
:1014A000694600200CF0C2F9BF484078401CBE4994
:1014B00048701DE001F074FCA8B101F06DFC03F070
:1014C000D6FD002003F0D7FD00200190022000F09F
:1014D000B8FD694600200CF0A9F9B3484078401CDB
:1014E000B149487002E00120AF49487000E000BFF8
:1014F00000BF41F28831AF4804F063FB58B10021CE
:10150000AC4804F05EFB022000F09BFD002001903F
:1015100069460CF08BF90EBD0EB5A44A183207CA05
:101520008DE80700A048407820B1012812D0022899
:1015300038D11BE00021A04804F043FB01F02CFC53
:10154000694600200CF072F997484078401C964993
:10155000487028E017200190694600200CF066F9D9
:1015600091484078401C904948701CE001F041FCD3
:10157000A0B101F03AFC01209049096848700020B0
:101580000190132000F05DFD694600200CF04EF93B
:1015900085484078401C8449487002E00120824917
:1015A000487000E000BF00BF43F69821824804F075
:1015B00008FB58B10021804804F003FB132000F021
:1015C00040FD0020019069460CF030F90EBD1FB5BA
:1015D000764A243207CA01AB07C300200090724844
:1015E000407820B1012812D002284BD11BE0002105
:1015F000734804F0E6FA01F021FC01A900200CF088
:1016000015F969484078401C674948703BE019204B
:10161000029001A900200CF009F963484078401CB1
:10162000614948702FE0684601F00FFCBDF80000EA
:101630000C2803DC61480068807818B100205A4902
:1016400048701EE0BDF80200C0B101205B49096886
:101650008870BDF80000401EC1B258480068C170D3
:10166000132000F0EEFC0020029001A90CF0DEF83F
:101670004D484078401C4C49487002E001204A49DE
:10168000487000E000BF00BF43F698214C4804F0CA
:1016900098FA58B100214A4804F093FA132000F058
:1016A000D0FC0020029001A90CF0C0F81FBD1FB5AE
:1016B0003E4A303207CA01AB07C33B48407870B995
:1016C000CA200090009801F0E6FB01A900200CF070
:1016D000ADF835484078401C3349487003E000209D
:1016E0003149487000BF00BF1FBD00B593B02F4AFD
:1016F0003C3207CA10AB07C314210BA80EF0C2F886
:10170000142106A80EF0BEF82748407806287DD29E
:10171000DFE800F0030C253D5A68002029490870D5
:1017200021484078401C20494870D6E006A801F0C6
:10173000CBFB24480078ADF82A000A98009006A850
:101740000FC801F0D0FB2820119010A900200CF048
:101750006DF815484078401C13494870BDE00BA84F
:1017600001F0B2FB0020ADF83C000F9800900BA8F0
:101770000FC801F02DFC2720119010A900200CF0BB
:1017800055F809484078401C07494870A5E010A961
:1017900000200CF04BF804484078401C0249487087
:1017A0009BE000007E090020A809002040FC000802
:1017B000800900208409002088090020C009002039
:1017C0008C0900209009002001F0C0FB2820119016
:1017D00010A900200CF02AF8FE484078401CFD4972
:1017E00048707AE00BA801F0FDFBBDF83C00012831
:1017F0006ED1BDF82C00BDF83410884261D1BDF81F
:101800002E10BDF8360081425BD100E064E0BDF8E7
:101810003010BDF83800814253D1BDF83210BDF808
:101820003A0081424DD1BDF82C00B0F5405F48DB55
:10183000BDF83400B0F5405F43DB02A801F019FFAA
:10184000E4480078072817D1DDE90B01CDE9020152
:1018500002A80FC801F020FF01F025FF132000F0BF
:10186000F0FB0020119010A90BF0E0FFD948407860
:10187000401CD84948702EE0082202A90BA80DF0A0
:1018800034FFB8B1DDE90B01CDE9040102A80FC8AE
:1018900001F002FF01F007FF132000F0D2FB00204F
:1018A000119010A90BF0C2FFCA484078401CC949EA
:1018B000487010E00220C84908700120C5494870EE
:1018C00009E00220C44908700120C249487002E0C2
:1018D0000320C049487000E000BF00BF13B000BD46
:1018E00010B598B0BD4A07CA15AB07C3AFF648108C
:1018F00000681490AFF6501000681390002012900A
:1019000000241190109018210AA80DF0BBFFB148D7
:1019100040780C287ED2DFE800F006313D47FEFD1E
:10192000FCFBFAF9F8F7AE48002101600068099065
:1019300001F095FC119801F09AFB0020A94908706C
:101940001A21A9480DF07CFF0120A7490883084609
:101950000169009141690191008BADF808001A22DC
:10196000A14903A80DF0EDFE03A80FC801F085FB07
:1019700098484078401C9749487056E22A201690B3
:1019800015A900200BF052FF92484078401C914965
:1019900048704AE215A900200BF048FF8D484078B6
:1019A000401C8C49487040E203A801F075FB1A22E4
:1019B00003A98D480DF0C5FE01F04CFC0990884844
:1019C0000999016001F070FB60B901F0ACFB48B906
:1019D0008548808A00287DD08348808A814909789B
:1019E0008842F8D08048808A032802DD00207E49A2
:1019F00088827D48C08A012802DD00207A49C88299
:101A00007948007D7749087008460078012806D09B
:101A1000022800E008E208D0032812D10BE00120E0
:101A20006F490880002048800BE002206C49088044
:101A30000020488005E00020694908800220488095
:101A400000BF00BF01F00BFB119001F043FB58B346
:101A500003206349088001F080FB10B10120604938
:101A600048806148808A032802D001F076FB18B1D3
:101A7000042058494870D8E101205B490883084692
:101A80000169009141690191008BADF808001A22AB
:101A9000554903A80DF055FE03A80FC801F0EDFA53
:101AA00001204C4948701FE04F480021016041600F
:101AB000018101204C490883084601690091416970
:101AC0000191008BADF808001A22474903A80DF0D8
:101AD00038FE00E09EE003A80FC801F0CEFA012016
:101AE0003C4948708DF8400001F037FBC0B301203D
:101AF0003B49488001F0EEFA10B1032038490880D4
:101B00003948808A012807E076E169E148E11AE175
:101B1000EBE0DEE0BBE081E006D03348808A0228BB
:101B200002D001F0D7FA18B104202A4948707CE1AC
:101B300001202D49088308460169009141690191FE
:101B4000008BADF808001A22274903A80DF0F9FD13
:101B500003A80FC801F091FA01201E4948701FE048
:101B6000FFE721480A300021016041600181012026
:101B70001D49088308460169009141690191008B64
:101B8000ADF808001A22184903A80DF0DAFD03A8E1
:101B90000FC801F072FA01200E4948708DF841001B
:101BA0009DF84000012803D19DF84400012807D08A
:101BB0009DF84500012830D19DF8410001282CD125
:101BC00000208DF840008DF84100119801F04FFA87
:101BD00003200BE0A80900209009002094FC0008D5
:101BE0009A09002098090020CA7C0020FB4908833C
:101BF00008460169009141690191008BADF8080028
:101C00001A22F64903A80DF09CFD03A80FC801F0A5
:101C100034FA02E00220F249487006E11A22EF4944
:101C2000F0480DF08EFDED48808A30B101280BD0D0
:101C300002280AD003280ED100E000BF082214A910
:101C4000E64804F0CAF807E006E001F098FD1290BB
:101C50001298149000E000BF00BF002114A802F009
:101C60000FFFDE48808A032807D000201390082247
:101C700013A9DA480A3004F0B0F8002113A802F0E2
:101C800007FFD7484078401CD5494870CDE0022076
:101C9000D449088308460169009141690191008B8C
:101CA000ADF808001A22CF4903A80DF04AFD03A899
:101CB0000FC801F0E2F92A20169015A900200BF0B8
:101CC000B5FD03F02CF8C6484078401CC449487064
:101CD000ABE02020169015A901200BF0A7FDC0480D
:101CE0004078401CBE4948709FE003F010F830B3C4
:101CF000002003F045F80021BB4803F062FF0420F8
:101D0000B849088308460169009141690191008B37
:101D1000ADF808001A22B34903A80DF012FD03A87C
:101D20000FC801F0AAF92A20169015A900200BF07F
:101D30007DFDAB484078401CA949487002E0062070
:101D4000A749487071E041F28831A74803F039FF94
:101D5000E8B90321002002F0E6FF012003F010F8AB
:101D60000446052C08D106209E4908839C484078EB
:101D7000401C9B49487012E0012C10D10520994964
:101D8000088397484078401C9549487007E0052033
:101D90009449088392484078401C9149487044E037
:101DA000002002F0EDFF8F48016900914169019127
:101DB000008BADF808001A228A4903A80DF0C1FC77
:101DC00003A80FC801F059F92A20169015A9002080
:101DD0000BF02CFD82484078401C8149487024E07B
:101DE0002020169015A901200BF020FD7C4840789A
:101DF000401C7B49487018E004A802F051FE1822EC
:101E000004A90AA80DF0E2FC02F081FF40B99DF898
:101E10002C0028B102F083FF05207149487002E0D0
:101E20000A206F49487000E000BF00BFFEF7C9FFFD
:101E30006E480068099001F012FA2D20169015A93D
:101E400000200BF0F3FC18B010BD10B50020644961
:101E50000870487066484068486066480021017014
:101E600001F03EFD6449086001F03EFD63490860F1
:101E700063480021016010BD3EB5624A07CA8DE883
:101E8000070000245B480078002853D1FEF73AFA97
:101E9000A8B964215C4803F094FE58B100215A4867
:101EA00003F08FFE4E4800782D2803D069460120AC
:101EB0000BF0BCFC002051490968C88003E00120F8
:101EC0004E490968C88002F022FF98B34448007860
:101ED0002D282FD002F023FF48480068007A08BB65
:101EE00002F0CFF9012812D0022806D0032818D119
:101EF000012040490870182413E014244048006869
:101F000020F4807000F580703D49086009E01524D8
:101F10003B48006820F4006000F500603849086024
:101F200000BF00BF204600F08CF8002001906946F9
:101F30000BF07CFC3EBD00B585B0324A0C3207CABE
:101F400002AB07C3684604F097FBDDE9000100F02F
:101F5000AEF802A900200BF069FC05B000BD3EB54B
:101F60000446284A183207CA8DE80700204600F0C8
:101F700068F8694600200BF059FC3EBD0EB5214AB9
:101F8000243207CA8DE80700FFF75FFF4FF448606F
:101F900003F02FFEFEF705FA00BF0BF088FA03F0FE
:101FA0007BFC012803D1FFF767FF02F02AFCFEF754
:101FB0000FFA4FF49671154803F003FE48B16946D5
:101FC00000200BF033FC0021104803F0FAFDFFF76E
:101FD000B2FF142003F00DFEDFE70000CA7C0020F2
:101FE000A8090020E47C0020940900209A09002020
:101FF00020FB0008B8090020BC090020C00900200F
:10200000C4090020A0FC0008A0090020A4090020A9
:1020100010B50C23024A0021024804F036FA10BD24
:10202000B47C00207D1F00080021F74801784FF69E
:10203000FF7000EA0121F44840780143F34800882A
:10204000704701460812F24A107051700120704723
:102050005A2100F8011B012100F8011BEC49097805
:1020600000F8011BEA49497800F8011B704710B5D8
:1020700003460C461A460BB9002010BD8420108080
:10208000822090700220D070101DFFF7E1FF012028
:10209000F3E702460B4611460AB9002070471420A8
:1020A0000880832088700120C87000BFF6E703B560
:1020B00043F23020D749C880BDF800000A2190FBC8
:1020C000F1F201FB12003030BDF800100A2291FB42
:1020D000F2F1303100EB012081B2CE4801819DF850
:1020E00002000A2190FBF1F201FB120030309DF852
:1020F00002100A2291FBF2F1303100EB0120C549B8
:1021000048819DF803000A2190FBF1F201FB1200C7
:1021100030309DF803100A2291FBF2F1303100EBD0
:102120000120BC4988819DF804000A2190FBF1F24E
:1021300001FB120030309DF804100A2291FBF2F1ED
:10214000303100EB0120B34908809DF805000A21D9
:1021500090FBF1F201FB120030309DF805100A22CD
:1021600091FBF2F1303100EB0120AA4948809DF843
:1021700006000A2190FBF1F201FB120030309DF8BD
:1021800006100A2291FBF2F1303100EB0120A14947
:10219000888001200CBD70B505460E462C460DB951
:1021A000002070BD4FF4885020808220A07007204E
:1021B000E07020460BF053FA0120F2E770B50024DE
:1021C000002501F08FFB064600BF2FE0305D06289A
:1021D00017D005DC23D2DFE800F010161218191A08
:1021E000FD281AD004DC072812D0FC2817D110E0F3
:1021F000FE2811D0FF2812D10CE0002510E00125A7
:102200000EE005250CE002250AE000BF00BF00BF7C
:1022100000BF00BF032503E000BF042500E000BFAE
:1022200000BF7D4820F81450601CC4B20C2CCDDBDC
:1022300070BD70B505460E462C460DB9002070BD28
:1022400041F2101020808220A0700C20E070204607
:102250000BF005FA0120F2E710B501F057FB6E49CB
:10226000088301F070FB6C49488302F025FA6A4943
:10227000888302F07CF9012802D103206649888313
:1022800002F072F9012802D102206349888302F02A
:1022900016FA6149C88310BD70B505460E462C4636
:1022A0000DB9002070BD4FF4895020808220A070AD
:1022B0000420E07020460BF0D2F90120F2E7202143
:1022C000002000BF06E001EB0122544B23F8102050
:1022D000421CD0B20428F6DB70477EB500204F4B7D
:1022E00008334E4900BF03E020240C54441CE0B2E4
:1022F0000828F9DB002004E01C5C0DF80040441CB9
:10230000E0B20728F8DB00200FE0012404EB4004D2
:102310001DF804201DF81040012505EB40050DF8BF
:1023200005400DF81020441CE0B20428EDDB00202D
:1023300008E01DF80040FF2C00D105E02A240C54D1
:10234000441CE0B20828F4DB00BF082806DA03E0EA
:1023500020240C54441CE0B20828F9DB00200BE0D8
:1023600001EB4004627811F8104001EB40056C70FD
:1023700001F81020441CE0B20428F1DB7EBD70B5EA
:1023800005460E462C460DB9002070BD41F23010B6
:1023900020808220A0700420E07020460BF05FF9BE
:1023A0000120F2E72021002000BF07E001EB01221D
:1023B0001A4B083323F81020421CD0B20428F5DB56
:1023C000704770B505460E462C460DB9002070BD0D
:1023D0004FF48A5020808220A0700420E0702046B4
:1023E0000BF03DF90120F2E710B5044612220B492B
:1023F00020460DF0A6F910BD7CB500240025002074
:102400000090019000BF1BE0360E0020D80900208C
:10241000340E0020687D0020767D0020967D00200F
:10242000FA4830F81400FF21B1EB102F04D0F74820
:1024300010F81400FF2801D1012503E0601CC4B28C
:10244000042CEDDB00BF2022082168460DF0F0F9D6
:10245000042C06D108226946EC480DF046F900B17B
:10246000012528467CBD02460B4611460AB90020CC
:1024700070474FF48A500880832088700420C87009
:102480000120F5E7E14908390882704770B5054633
:102490000E462C460DB9002070BD41F25010208030
:1024A0008220A0700120E07020460BF0D8F80120B7
:1024B000F2E710B5D648C088D649C880D44801890B
:1024C000D4480181D2484089D2494881D048808986
:1024D0008881CF4800880880CD4840884880CC4813
:1024E000808888800E22CC480DF02BF910BD10B5E5
:1024F0000E22C849C8480DF024F910BD10B5044695
:102500000E22C44920460DF01CF910BD10B50E2254
:10251000C049C1480DF0E9F808B1012010BD002004
:10252000FCE770B505460E462C460DB9002070BD7F
:102530004FF48B5020808220A0700C20E070204649
:102540000BF08DF80120F2E702460B4611460AB95E
:10255000002070474FF48B500880832088700C2037
:10256000C8700120F5E70020AA49C8814883704758
:10257000A94948837047012802D002280ED106E0FD
:102580000121A44A91830022A249CA8307E00021C5
:10259000A04A918301229F49CA8300E000BF00BF87
:1025A000704710B500249B48408B012803D0994800
:1025B000408B022814D19748408B9749488300F0FC
:1025C000D9FE9549498B88420AD09349488B00F03F
:1025D000D4FE00F0D5FE9049488BFFF7CCFF0124D4
:1025E000204610BD8C49C8817047012802D00228BE
:1025F0000ED106E00121874A1182002285494A82D4
:1026000007E00021834A1182012282494A8200E0C8
:1026100000BF00BF704710B500247E48C089012864
:1026200003D07C48C089022817D17A48C0897A49EA
:10263000C88100F043FE7849C98988420DD0012045
:102640007449C8817449C88900F03BFE00F03CFE23
:102650007149C889FFF7C9FF0124204610BD70B534
:1026600005460E462C460DB9002070BD41F2701093
:1026700020808220A0700220E07020460AF0EFFF48
:102680000120F2E702460B4611460AB900207047C6
:1026900041F270100880832088700220C8700120E9
:1026A000F5E770B505460E462C460DB9002070BD05
:1026B0004FF48C5020808220A0700420E0702046CF
:1026C0000AF0CDFF0120F2E710B504460E222146A4
:1026D000504820300DF035F810BD10B504460E22DC
:1026E0004C49203120460DF02CF810BD1FB50024B8
:1026F00000200090019002900390684600F096FE42
:102700000E226946434820300CF0EFFF00B101244F
:10271000204604B010BDF8B500240026FF2000902C
:102720003C4D203500BF0CE001226946284603F0ED
:10273000A0FA08B1012606E06D1CFF200090601C85
:10274000C4B20E2CF0D300BF3046F8BD31498882A8
:1027500070473048808A704710B5002400F0D1FEE1
:102760002C49898A884200D00124204610BD0246A7
:102770000B4611460AB90020704741F290100880BC
:10278000832088700820C8700120F5E770B50546E1
:102790000E462C460DB9002070BD41F290102080ED
:1027A0008220A0700820E07020460AF058FF012027
:1027B000F2E71A490A6802604A68426009890181A1
:1027C000704701B504221549684603F0E1FA42F268
:1027D00020001249088112480A6802604A68426073
:1027E0000989018108BD10B500240A220B490C4853
:1027F0000CF07BFF40B10A4808490A6802604A6849
:102800004260098901810124204610BD9E7D00207F
:10281000687D0020A87D0020D67D0020907E0020CD
:102820009A7E00200020002100BF0FE0F84A32F815
:102830001120FF23B3EB122F04D0F54A12F8112018
:10284000FF2A01D1002015E04A1CD1B20429EDDB9A
:10285000EF4AD288FF23B3EB122F0AD0EC4A9279C9
:10286000FF2A06D0EA4A1289A2F57F43FF3B00D136
:10287000012000BF7047E749C8827047E548C08A19
:10288000704710B5002400F098FEE249C98A8842DA
:1028900000D00124204610BD02460B4611460AB95D
:1028A000002070474FF48D500880832088700720E7
:1028B000C8700120F5E770B505460E462C460DB9E7
:1028C000002070BD4FF48D5020808220A070072022
:1028D000E07020460AF0C3FE0120F2E710B54C215B
:1028E000CD480CF0ADFF10BDF0B587B005460E46E3
:1028F0000024002006901422C84901A80CF066FFAD
:1029000000274C21C4480CF09BFFC34A00213046ED
:1029100003F0E6F900BF28E0A81C005D0011069056
:1029200006A803F0D3F99DF8180030304FF6FF7178
:1029300001EA0021B848083020F81410A81C005DF6
:1029400000F00F00069006A803F0C0F9B248083066
:1029500030F814109DF818003030084481B2AE48A9
:10296000083020F81410601CC4B2042CD4D343F2F5
:102970003020A9490882A8890A2190FBF1F201FBC5
:1029800012003030A9890A2291FBF2F1303100EBBC
:10299000012081B2A0484182A87B0A2190FBF1F07E
:1029A000303000F53C5081B29B488182A87B0A21DF
:1029B00090FBF1F201FB120030302F2101EB0020DF
:1029C00081B29548C182E87B0A2190FBF1F201FBBC
:1029D00012003030E97B0A2291FBF2F1303100EB3A
:1029E000012081B28C480183287C0A2190FBF1F000
:1029F000303000F5005081B287484183287C0A219D
:102A000090FBF1F201FB120030303A2101EB002083
:102A100081B281488183687C0A2190FBF1F201FB3D
:102A200012003030697C0A2291FBF2F1303100EB68
:102A3000012081B27848C18343F23020764908846E
:102A4000A88A0A2190FBF1F201FB12003030A98A1A
:102A50000A2291FBF2F1303100EB012081B26E4885
:102A60004184A87B0A2190FBF1F0303000F53C5006
:102A700081B269488184A87D0A2190FBF1F201FBB3
:102A8000120030302F2101EB002081B26248C18456
:102A9000E87D0A2190FBF1F201FB12003030E97D64
:102AA0000A2291FBF2F1303100EB012081B25A4849
:102AB0000185287E0A2190FBF1F0303000F50050AE
:102AC00081B255484185287E0A2190FBF1F201FB35
:102AD000120030303A2101EB002081B24E4881854E
:102AE000687E0A2190FBF1F201FB12003030697E12
:102AF0000A2291FBF2F1303100EB012081B246480D
:102B0000C185A87A401CC7B2434A303200213846FA
:102B100003F0E6F8A88B012802D002283AD11BE086
:102B2000002416E03E4911F8140001023A48323000
:102B300020F8141030F814003949022202FB041165
:102B40004978084481B23448323020F81410601CAF
:102B5000C4B2032CE6D31EE0002418E03048801DE8
:102B600010F8140001022C48323020F8141030F80C
:102B700014102B48801D022202FB040040780844F8
:102B800081B22548323020F81410601CC4B2032CE6
:102B9000E4D300E000BF00BF68780C285FD2DFE814
:102BA00000F05E060C131A21282F434950571422B7
:102BB0001C4901A80CF00AFE51E0142219491431F5
:102BC00001A80CF003FE4AE014221649283101A89E
:102BD0000CF0FCFD43E0142212493C3101A80CF03A
:102BE000F5FD3CE014220F49503101A80CF0EEFD38
:102BF00035E014220B49643101A80CF0E7FD2EE00A
:102C000014220849783101A80CF0E0FD27E000000B
:102C1000907E0020A87D0020047E0020D4FC0008C7
:102C20004C0D0020580D00201422FC4901A80CF086
:102C3000CDFD14E01422F949143101A80CF0C6FDB1
:102C40000DE01422F549283101A80CF0BFFD06E083
:102C50001422F2493C3101A80CF0B8FD00BF00BFBE
:102C6000002414E001A911F814000102EC4820F836
:102C7000141030F8140001A9022202FB0411497853
:102C8000084481B2E64820F81410601CC4B20A2C33
:102C9000E8D307B0F0BD30B500230022E049383951
:102CA000262300BF09E00C88241200F8014B11F81C
:102CB000025B00F8015B541CE2B29A42F3DB30BDC8
:102CC00070B505460E462C460DB9002070BD4FF478
:102CD000804000EB062020808220A0702620E0703B
:102CE000201DFFF7D8FF0120F0E72DE9F04107464E
:102CF0000C4615461E461821CA480CF0A1FDC94ACB
:102D00000021384602F0ECFFC64A08320021204676
:102D100002F0E6FFC3488582C682BDE8F081C14A61
:102D2000928A0280BF4AD28A0A80704730B5002357
:102D30000022BC490C2300BF09E00C88241200F8D3
:102D4000014B11F8025B00F8015B541CE2B29A429D
:102D5000F3DB30BD70B505460E462C460DB900209C
:102D600070BD41F2B01020808220A0700C20E07075
:102D7000201DFFF7DBFF0120F2E702460B4611465C
:102D80000AB90020704741F2B01008808320887093
:102D90000C20C8700120F5E70020A3490880704787
:102DA000A1480088704770B505460E462C460DB9FF
:102DB000002070BD4FF48E5020808220A070012032
:102DC000E07020460AF04BFC0120F2E702460B4679
:102DD00011460AB9002070474FF48E5008808320B6
:102DE00088700120C87000BFF5E700208F49088374
:102DF00070478E48008B704770B505460E462C46CE
:102E00000DB9002070BD41F2D01020808220A0704A
:102E10000120E07020460AF022FC0120F2E7024681
:102E20000B4611460AB90020704741F2D0100880C5
:102E3000832088700120C87000BFF5E77C4800211E
:102E4000016001207A49088070477949096801606A
:102E5000704770B505460E462C460DB9002070BD72
:102E60004FF48F5020808220A0700220E070204616
:102E70000AF0F5FB0120F2E702460B4611460AB9BB
:102E8000002070474FF48F50088083208870022004
:102E9000C8700120F5E701B56648BDF80010018053
:102EA00008BD70B505460E462C460DB9002070BD14
:102EB00041F2F01020808220A0700120E0702046B6
:102EC0000AF0CDFB0120F2E710B5202300210246D5
:102ED00000BF05E003EB03241480921C4C1CE1B2FC
:102EE0000829F7DB10BD0FB410B5142202A952480F
:102EF0000CF027FC10BC5DF814FB70B50C460023E9
:102F000000224D490A2300BF09E00D882D1200F868
:102F1000015B11F8026B00F8016B551CEAB29A4292
:102F2000F3DB70BD70B505460E462C460DB900208A
:102F300070BD4FF4A15020808220A0700A20E07064
:102F40003146201DFFF7D9FF0120F1E710B500241D
:102F500000BF18E0394830F8140090B137480088B5
:102F6000A0F57F41FF390CD0344830F81400A0F5AB
:102F70000051203905D02A2208212F480CF058FC96
:102F800003E0601CC4B2042CE4DB00BF00241BE09F
:102F90002A48083030F81400A0B128480089A0F56C
:102FA0007F41FF390ED02548083030F81400A0F5D5
:102FB0000051203906D02A2208211F4808300CF081
:102FC00037FC03E0601CC4B2042CE1DB00BF10BD81
:102FD0000FB410B5142202A918480CF0B2FB10BCB3
:102FE0005DF814FB10B504461422144920460CF079
:102FF000A8FB10BD70B505460E462C460DB9002045
:1030000070BD4FF4A25020808220A0700A20E07092
:1030100020460AF024FB0120F2E70000E40D002026
:103020003C7E0020507E00203A0E0020A87D00202B
:103030003C0E0020400E00207C7E0020687E002098
:1030400002460B4611460AB9002070474FF4A250C1
:103050000880832088700A20C8700120F5E708B531
:103060008B4800880090BDF80010084608BD01B5E7
:103070008748BDF80010018008BD0FB410B51A22B2
:1030800002A984480CF05DFB1A22824982480CF0A8
:1030900058FB10BC5DF814FB10B504461A227D499C
:1030A00020460CF04EFB10BD10B500240A227A49D0
:1030B00078480CF01AFB58B1774876490A680260E4
:1030C0004A68426009890181012071490870012420
:1030D000204610BD0020002100BF0FE06D4A32F8ED
:1030E0001120FF23B3EB122F04D06A4A12F81120EB
:1030F000FF2A01D1002015E04A1CD1B20429EDDBE2
:10310000644AD288FF23B3EB122F0AD0614A927926
:10311000FF2A06D05F4A1289A2F57F43FF3B00D108
:10312000012000BF704710B500240A225A490A3115
:1031300058480A300CF0D9FA68B157480A30554956
:103140000A310A6802604A684260098901810120E7
:103150004F4948700124204610BD0020002100BFC7
:1031600011E04C4A0A3232F81120FF23B3EB122F40
:1031700005D0484A0A3212F81120FF2A01D1002056
:1031800015E04A1CD1B20429EBDB424A128AFF2324
:10319000B3EB122F0AD03F4A127CFF2A06D03D4AD9
:1031A000528AA2F57F43FF3B00D1012000BF704748
:1031B00070B505460E462C460DB9002070BD4FF483
:1031C000A35020808220A0700D20E07020460AF0DD
:1031D00046FA0120F2E702460B4611460AB90020E2
:1031E00070474FF4A3500880832088700D20C8706A
:1031F0000120F5E701B52948BDF80010018008BDA0
:1032000008B5264800880090BDF80010084608BDA3
:1032100070B505460E462C460DB9002070BD4FF422
:10322000A45020808220A0700120E07020460AF087
:1032300016FA0120F2E702460B4611460AB90020B1
:1032400070474FF4A4500880832088700120C87014
:1032500000BFF5E708B512480068009008BD01B549
:103260000F480099016008BD70B505460E462C4612
:103270000DB9002070BD4FF4A55020808220A070B1
:103280000220E07020460AF0EAF90120F2E700008F
:10329000420E0020A47E0020BE7E0020440E0020AE
:1032A000460E0020F748F8490860F8484860704723
:1032B000F54A06CAC0E9001270477047F448008812
:1032C0007047F3490880704708B5F1480088ADF8A9
:1032D00000000221684602F059FC8DF8020003222A
:1032E0006946132003F09CF80322694640F213401C
:1032F00009F066FA08BD1CB5032201A9132003F0EA
:103300009AF80322694640F2134009F06EFA02214E
:1033100001A802F03BFC9DF8061088420ED19DF8F2
:1033200004009DF8051000EB0120D9490880032214
:1033300001A940F2134009F043FA1AE0022168465D
:1033400002F024FC9DF8021088420DD19DF8000087
:103350009DF8011000EB0120CD4908800322694649
:10336000132003F05DF804E00120C9490880FFF74D
:10337000ABFF1CBDC648C0887047C549C8807047B0
:1033800008B5C348C088ADF800000221684602F0C5
:10339000FDFB8DF80200032269461C2003F040F873
:1033A0000322694640F21C4009F00AFA08BD1CB528
:1033B000032201A91C2003F03EF80322694640F2D3
:1033C0001C4009F012FA022101A802F0DFFB9DF86F
:1033D000061088420ED19DF804009DF8051000EB00
:1033E0000120AB49C880032201A940F21C4009F02A
:1033F000E7F91AE00221684602F0C8FB9DF80210C6
:1034000088420DD19DF800009DF8011000EB0120CD
:103410009F49C880032269461C2003F001F804E09C
:1034200002209B49C880FFF7ABFF1CBD10B50446C6
:103430000E229749083120460CF083F910BD10B5D3
:1034400004460E222146924808300CF07AF910BD4D
:103450001FB50E228E49083168460CF072F90E2114
:10346000684602F093FB8DF80E000F2269461F207C
:1034700002F0D6FF0F22694640F21F4009F0A0F982
:103480001FBD00B589B00F2205A91F2002F0D3FF90
:103490000F2201A940F21F4009F0A7F90E2105A84B
:1034A00002F074FB9DF8221088420CD10E2205A96F
:1034B000774808300CF045F90F2205A940F21F406B
:1034C00009F07EF91BE00E2101A802F05FFB9DF8D8
:1034D000121088420BD10E2201A96D4808300CF061
:1034E00030F90F2201A91F2002F09AFF07E02022E5
:1034F0000E21674808300CF09BF9FFF7A9FF09B0CF
:1035000000BD63484088704761494880704708B5EE
:103510005F484088ADF800000221684602F036FBA3
:103520008DF8020003226946162002F079FF03227B
:10353000694640F2164009F043F908BD1CB5032264
:1035400001A9162002F077FF0322694640F21640D7
:1035500009F04BF9022101A802F018FB9DF80610B2
:1035600088420ED19DF804009DF8051000EB012063
:1035700047494880032201A940F2164009F020F98A
:103580001AE00221684602F001FB9DF80210884211
:103590000DD19DF800009DF8011000EB01203C4981
:1035A000488003226946162002F03AFF04E06420B6
:1035B00037494880FFF7ABFF1CBD3548808870470E
:1035C00033498880704708B531488088ADF80000DD
:1035D0000221684602F0DAFA8DF8020003226946F9
:1035E000192002F01DFF0322694640F2194009F03C
:1035F000E7F808BD1CB5032201A9192002F01BFF42
:103600000322694640F2194009F0EFF8022101A8AF
:1036100002F0BCFA9DF8061088420ED19DF8040015
:103620009DF8051000EB012019498880032201A9AB
:1036300040F2194009F0C4F81AE00221684602F08D
:10364000A5FA9DF8021088420DD19DF800009DF862
:10365000011000EB01200E498880032269461920E1
:1036600002F0DEFE04E0962009498880FFF7ABFFF8
:103670001CBD10B504461022064920460CF061F826
:1036800010BD000000009042500E00200000C0401D
:10369000D87E0020EE7E00201FB5102269468C489F
:1036A0000CF04FF81FBD00B585B010228849684660
:1036B0000CF047F81021684602F068FA8DF8100007
:1036C000112269462E2002F0ABFE1122694640F21B
:1036D0002E4009F075F805B000BD00B58FB07D48EB
:1036E00003C8CDE903017B49083103C9CDE90101D4
:1036F00011220AA92E2002F09EFE112205A940F2F5
:103700002E4009F072F810210AA802F03FFA9DF845
:10371000381088420FD16E480A9901600B994160B8
:103720000C9981600D99C16011220AA940F22E40C6
:1037300009F046F821E0102105A802F027FA9DF8CB
:10374000241088420ED162480599016006994160B3
:10375000079981600899C160112205A92E2002F005
:103760005FFE0AE05A48039901600499416001999B
:1037700081600299C160FFF796FF0FB000BD08B5E8
:1037800055480068009008BD01B553480099016094
:1037900008BD1CB55048006800900421684602F03E
:1037A000F5F98DF80400052269463F2002F038FE45
:1037B0000522694640F23F4009F002F81CBD00B501
:1037C00085B046A000680090052203A93F2002F0C2
:1037D00032FE052201A940F23F4009F006F804211B
:1037E00003A802F0D3F99DF81010884209D13A4895
:1037F00003990160052203A940F23F4008F0E0FF71
:1038000015E0042101A802F0C1F99DF808108842D2
:1038100008D1314801990160052201A93F2002F039
:10382000FFFD04E02C4800990160FFF7B2FF002182
:10383000294801F025F905B000BD10B586B000207B
:103840000290039004900590FEF733FEFEF78BFE86
:10385000FFF734FD0446FEF7C5FEFFF78BFD044677
:10386000FEF786FEFFF72AFD0446FEF7BEFEFFF7D1
:1038700081FD0446FEF77FFEFFF743FE0446FEF798
:1038800065FF02A8FFF7D2FD02A8FEF71DFFFFF7B4
:1038900094FE0446FEF7EFFFFFF771FF0190FEF77D
:1038A00090FF06B010BD10B5FFF7FCFCFFF723FD3D
:1038B000FFF77DFDFFF742FEFFF7E3FDFFF79AFEFE
:1038C00001F0F3FBFFF709FFFFF779FF10BD0000E0
:1038D000EE7E0020E8FC00084C0E0020FFFFFFFFFA
:1038E000FE487047FE487047FE48704710B50B21F0
:1038F000FC480BF0C7FF01F013F8FB49086010BD4E
:10390000FA48002101604160816070470021002079
:1039100000BF06E0F24A525C0AB9421CD0B24A1C0F
:10392000D1B20C29F6DB70470021002000BF07E070
:10393000EB4A525C022A01D1421CD0B24A1CD1B2DD
:103940000C29F5DB70470021002000BF0BE0E44AA2
:10395000525C012A03D0E24A525C022A01D1421C85
:10396000D0B24A1CD1B20C29F1DB704770B50024EB
:10397000FFF723FE0646FFF7D7FF054600BF0DE021
:10398000D748005D012807D1D748006850F82400C7
:10399000B04201DB681CC5B2601CC4B20C2CEFDB6A
:1039A000284670BD3EB504460025D14A07CA8DE8B9
:1039B0000700CE48407A042866D1CE4850F824004B
:1039C00030B1012812D0022837D003285BD14AE059
:1039D000C94901EB8400002102F0F3F8C54850F812
:1039E0002400401CC34941F824004CE0C24901EBCB
:1039F00084004FF4FA6102F0E4F8C0B9BF4901EB6A
:103A00008400002102F0DDF82146002001F00AFFC9
:103A10000320019002946946022009F007FFB5488F
:103A200050F82400401CB34941F8240004E0002071
:103A3000B04941F82400012525E0B04901EB84009C
:103A4000642102F0BEF801280CD1AC4901EB8400DE
:103A5000002102F0B6F8A74850F82400401CA54900
:103A600041F824000FE0204601F0D4FE012805D1E2
:103A70000020A04941F82400012503E001209D49D0
:103A800041F8240000BF00E0012528463EBD3EB5B8
:103A90000446974A0C3207CA8DE80700984901EBA3
:103AA0008400C82102F08DF801280AD1944901EB65
:103AB0008400002102F085F802946946022009F092
:103AC000B5FE3EBD3EB504460025894A183207CAF8
:103AD0008DE807008B4850F8240030B1012812D03F
:103AE000022837D003285BD14AE0874901EB8400E4
:103AF000002102F066F8834850F82400401C8149F8
:103B000041F824004CE0804901EB84004FF4FA6155
:103B100002F057F8C0B97D4901EB8400002102F0A2
:103B200050F82146012001F07DFE0320019002940F
:103B30006946022009F07AFE724850F82400401CC1
:103B4000704941F8240004E000206E4941F8240047
:103B5000012525E06D4901EB8400642102F031F874
:103B600001280CD1694901EB8400002102F029F8F9
:103B7000644850F82400401C624941F824000FE0DA
:103B8000204601F047FE012805D100205D4941F89B
:103B90002400012503E001205A4941F8240000BF18
:103BA00000BF28463EBD3EB50024514A243207CA14
:103BB0008DE8070000BF65E0554800680121A1407D
:103BC00008425AD05348005D10B1012854D11FE07B
:103BD0002146002001F026FE02946946022009F0E9
:103BE00025FE4D48006820F4803000F580304A49B9
:103BF0000860204609F0B7FA484901EB840000212B
:103C000001F0DFFF4348005D401C4249085533E0A6
:103C1000424901EB8400C82101F0D3FF58B320468C
:103C200009F001FB204609F05EFB38B13848016815
:103C30000120A0408143364801601CE0384901EB77
:103C4000840040F2F91101F0BCFFA0B13548015DDC
:103C5000005D401C334A1055032909DB0020114642
:103C600008552B4801680120A04081432848016085
:103C700000202849085500BF02E0002025490855CA
:103C8000601CC4B20C2C97DB2148006810B9264890
:103C90001F4948603EBD1E48006818B1AFF2F900E8
:103CA0001B494860704770B5044600251F48005DF9
:103CB000092873D2DFE800F0054CC9FAF9F8F7F6E5
:103CC000F5002046FFF76EFE012840D1204609F09E
:103CD0004AFA174901EB840000212BE0008F0020F5
:103CE000D892002050930020740E0020908F002066
:103CF000F8FC00089C8F0020CC8F0020FC8F002057
:103D00002C9000205C9000208C900020BC90002023
:103D1000780E0020EC900020C4090020F8900020CC
:103D20002891002058910020973C000864910020C1
:103D30007091002001F045FFF74901EB840000215C
:103D400001F03FFFF548005D401CF449085520E2B2
:103D5000F34901EB8400C82101F033FF002873D040
:103D6000204609F060FA204609F0BDFA40B3ED485C
:103D7000407A012813D1E948005D401CE749085505
:103D8000E94901EB8400002101F01BFFE7480068CE
:103D900020F00100401CE549086055E0F8E10520ED
:103DA000DE490855E24901EB8400002101F009FFDA
:103DB000DE48006820F00200801CDC49086043E017
:103DC000D54901EB840040F2F91101F0FAFE002818
:103DD0003AD0D848015D005D401CD64A10550329F1
:103DE0002FDB002011460855FF20D3490855CD4848
:103DF000407A01280BD101250F20FEF7B0F8CB48FF
:103E0000006820F080008030C84908600BE002257F
:103E10001020FEF7A4F8C548006820F4806000F583
:103E20008060C2490860BF49CB7A887A4A1C29461B
:103E300001F0A6F9FFF764FDC0480078401EBF49B5
:103E400008700020B5490855A3E1B74901EB84008B
:103E50004EF6602101F0B5FE48BB2046FFF717FE85
:103E6000B548005D50B1B64901EB8400002101F076
:103E7000A8FEAA48005D401CA8490855204609F044
:103E800032FA58BBAC48005D40BBAD4901EB840041
:103E9000002101F096FEA148005D401C9F49085595
:103EA0001CE06AE15BE112E1EDE06BE017E0FFE7A7
:103EB000FE20A149085502209A4948729F4800787F
:103EC000401E9E4908700020944908559748006894
:103ED00020F4804000F580409449086059E19849F9
:103EE00001EB840045F2F05101F06BFE98BB2046D7
:103EF000FFF7CDFD204609F0F6F958BB904901EBDC
:103F00008400002101F05DFE8E4901EB8400002158
:103F100001F057FE8848005D06280AD12046FFF7C9
:103F2000D1FD01280AD17D48005D401C7B49085520
:103F300004E07A48005D401C784908557B480068D9
:103F400020F4004000F500407849086000217E48D8
:103F500001F037FE15E0FFE7FE2077490855022003
:103F60007049487275480078401E744908700020F6
:103F70006A4908556D48006820F0200020306B49E0
:103F8000086006E16F4901EB840041F2883101F0DD
:103F900018FE002860D06848005D012803D06648FC
:103FA000005D02280DD103255E49CB7A887A4A1C30
:103FB000294601F0E5F803205A4948720020C872EA
:103FC00046E05D48005D90B904255649CB7A887A71
:103FD0004A1C294601F0D4F81720FDF7C0FF5348CA
:103FE000006820F0400040305049086022E052480C
:103FF000005D03280BD05048005D042807D04E48D0
:10400000005D052803D04C48005D072812D1052526
:104010004449CB7A887A4A1C294601F0B1F81B2022
:10402000FDF79DFF4148006820F4805000F5805066
:104030003E490860FFF764FC40480078401E3F4955
:104040000870424800680121A14008433F490860C8
:1040500000203249085515E02046FFF718FD4FF4BF
:104060004861394801F0ADFD01280BD100213648E7
:1040700001F0A7FD2D48006820F4004000F5004045
:104080002A49086085E02A4901EB840049F640414D
:1040900001F097FDA8B9204609F025F9B0B92449E7
:1040A00001EB8400002101F08CFD264901EB840026
:1040B000002101F086FD1948005D401C1749085594
:1040C00004E01648005D801C1449085561E01D4954
:1040D00001EB840040F6B83101F073FDD8B1164809
:1040E000005DA8B308250F49CB7A887A4A1C294677
:1040F00001F046F81D20FDF732FF0848005D801CE6
:10410000064908550948006820F4005000F50050A1
:104110000649086022E021E0A0910020649100207F
:1041200070910020908F0020DC910020C4090020B5
:104130006C920020D0910020D89200205093002053
:104140000C9200203C920020580E0020780E002097
:10415000FFE7F948005D401CF749085519E00925BB
:10416000F649CB7A887A4A1C294601F009F8F248C8
:10417000005D401CF04908550BE0FFF7C1FBF0481B
:104180000078401EEE4908700020EB49085500E019
:1041900000BF00BF70BD70B504460025E948005D52
:1041A00010B101286AD110E0204609F09CF858B9F6
:1041B000FD20E5490855E348005D401CE1490855EC
:1041C0000021E24801F0FDFC59E04FF47A71DF482C
:1041D00001F0F7FC01284DD10021DC4801F0F1FC91
:1041E000D948005DFD2848D0D748005D012803D09C
:1041F000D548005D02280AD10625D049CB7A887AB5
:104200004A1C294600F0BCFF1C20FDF7A8FECE4842
:10421000005D03280BD0CC48005D042807D0CA48B5
:10422000005D052803D0C848005D072812D1072586
:10423000C249CB7A887A4A1C294600F0A1FF1E2089
:10424000FDF78DFEC248006820F4805000F58050D4
:10425000BF490860FFF754FB0020BA490855BA4827
:10426000005D50B1BB4800680121A1400843B94935
:10427000086002E02046FFF70AFC00E000BF00BF34
:1042800070BD70B50025002400BF0CE004EB4400B5
:10429000B14901EB8000407A012802D1012528466E
:1042A00070BD601CC4B20C2CF0DBFFF72FFB0128A3
:1042B00008DBFFF75BFBA2490978491C884201DB58
:1042C000032500E002252846EAE70021002000BF80
:1042D0000AE001EB4102A04B03EB8202527A0AB9D9
:1042E000084603E04A1CD1B20C29F2DB00BF70473C
:1042F00070B50126B51E0024FFF708FB28B1FFF7B3
:1043000035FB8F490978884202DA0026304670BDB5
:1043100092480078401CC4B206E08B48005D08B9A2
:1043200065B203E0601CC4B20C2CF6DB00BF681C55
:104330000FD1002406E08448005D08B965B207E0AB
:10434000601CC4B2854890F90000401C8442F2DB36
:1043500000BF012079494872CD728048057030460F
:10436000D5E710B502460021012000BF1AE001EB9D
:104370004103794C04EB83035B7A042B06D001EBF9
:10438000410304EB83035B7A022B09D101EB410368
:10439000714C04EB8303DB7A934201D1002003E0EC
:1043A0004B1CD9B20C29E2DB00BF10BD2DE9F04156
:1043B000FFF703F906464FF0FF350024FFF7D6FA62
:1043C00088B95E49887A00234A1C0B2100F0D8FE88
:1043D000FFF796FA5A480078401E59490870142091
:1043E000FDF7BDFD75E0FFF79FFA01282ADB5C4869
:1043F0000078401CC4B20BE05348005D022805D190
:104400002046FFF7AEFF08B165B203E0601CC4B2FE
:104410000C2CF1DB00BF681C4BD100240BE04A4898
:10442000005D022805D12046FFF79BFF08B165B269
:1044300007E0601CC4B24A4890F90000401C844266
:10444000EDDB36E046480078401CC4B211E03E483F
:10445000005D01280BD14348006850F82400B042A9
:1044600005DB2046FFF77DFF08B165B203E0601C65
:10447000C4B20C2CEBDB00BF681C1AD1002411E085
:104480003148005D01280BD13648006850F82400FF
:10449000B04205DB2046FFF764FF08B165B207E0D4
:1044A000601CC4B22E4890F90000401C8442E7DB37
:1044B00000BF042021494872CD72FEF7FFFE074677
:1044C0001E49887A3A460C2100F041FE24480570C6
:1044D00000BFBDE8F08110B50446012C06D0022CC7
:1044E0000AD0032C0DD0042C0ED100E000BF1349DC
:1044F000C87AFFF7D8FB1CE01049C87AFFF74BFEDB
:1045000017E0FFF753FF14E0FFF7F2FE80B90B4905
:10451000887A00234A1C0A2100F032FEFFF7F0F9E6
:1045200007480078401E064908701420FDF717FD63
:1045300000BF00BF10BD000064910020908F0020DC
:10454000509300209C920020D8920020A892002036
:10455000C4090020780E0020008F00205C0E00208F
:104560005D0E0020740E0020E048807A7047DF481E
:10457000407A704710B5002008F02AFF30B1DC48BF
:104580000078401C40B2DA49087005E0D84800784D
:10459000401E40B2D6490870D54890F90000052861
:1045A0000CDB0520D2490870002008F05FFF0020D6
:1045B00008F06EFF0120CD4908728872CC4890F94E
:1045C000000010F1050F05DCFB20C9490870002030
:1045D000C6498872012008F0FBFE50B1FEF7CAFE02
:1045E000012806D1C3480078401C40B2C149087078
:1045F00005E0C0480078401E40B2BE490870BD4882
:1046000090F9000005280BDB0520BA49087000204E
:1046100008F02CFF002008F03BFF0120B34948724E
:10462000B44890F9000010F1050F05DCFB20B149FA
:1046300008700020AD494872AD4890F9000010F1B3
:10464000050F0EDCAB4890F9000010F1050F08DCF7
:10465000002008F014FF002008F01FFF0020A349ED
:10466000087210BD10B5022008F0B2FE30B1A248A9
:104670000078401C40B2A049087005E09E480078D0
:10468000401E40B29C4908709B4890F900000528E4
:1046900005DB0520984908700120944988809648D8
:1046A00090F9000010F1050F05DCFB20924908701D
:1046B00000208E49888010BD8C48808870478B48C8
:1046C000C088704770B50024FBF731FE054600BF77
:1046D00008E00120A040284202D0FC20874908556C
:1046E000601CC4B20C2CF4DB70BD3EB50024002568
:1046F000834A07CA8DE807007C484078012834D1F6
:104700002EE002F0A7FA25B1012D0CD0022D26D102
:1047100021E000217B4801F054FA204608F023FDF7
:10472000681CC5B21BE0C821764801F04AFA88B17E
:104730000021744801F045FA204608F074FD214636
:10474000002001F06FF802946946022009F06EF82B
:10475000681CC5B203E0601CC4B2002500BF00BFE6
:104760000C2CCEDB0020614948703EBD0EB5644A7A
:104770000C3207CA8DE807005C48807800283FD0DB
:104780006148007820B1012810D0022837D12CE0F0
:104790005649C87808F0E7FC00215C4801F011FA9E
:1047A00059480078401C5849087028E0C8215748EB
:1047B00001F007FAC0B10021544801F002FA4B4958
:1047C000C87808F030FD4948C178002001F02AF887
:1047D0004648C07802906946022009F027F84A4806
:1047E0000078401C4849087009E000203F49887063
:1047F00000213E48C17000204349087000BF00BF3F
:104800000EBD3EB53E4A183207CA8DE807000024A7
:1048100036480078002839D14FF47A713C4801F0CD
:10482000D0F9012832D10021394801F0CAF93948BC
:10483000007808F058FD90B9304836490978405C56
:1048400006280BD02D4833490978405C012805D053
:104850002A4830490978405C022800D101242D48BB
:104860000178204600F0DEFF2A4800780290694671
:10487000022008F0DBFF27480078401C254908701B
:10488000084600780C2801D1002008703EBDAFF624
:10489000F93021494860FFF729F84FF47A7001F0A8
:1048A000A8F900BF1C494868804702F0D3F900F01E
:1048B00039F800F084F808F0B3F901F0E3FAFFF7F3
:1048C00059FEFFF712FFFFF751FFFFF7CBFEFFF78F
:1048D000F9FE142001F08DF9E4E710B504230F4A26
:1048E0000021AFF2550001F0D0FD10BD5093002023
:1048F0005E0E00205F0E0020600E0020D892002087
:1049000028FD0008640E00206C0E0020680E0020B8
:10491000700E00206D0E0020780E0020FC8E00200E
:10492000544870477FB50024002002900390FEF7A2
:10493000D9FF05464FF47A714F4801F042F960B350
:1049400000214D4801F03DF900BF24E0285D012819
:1049500002D0285D02281CD102A801F08DFEDDE9FD
:10496000020101F0C7FE064605F1180000EBC40085
:1049700001680091406801460190009801F0BAFE7C
:10498000311A3C48303050F824000844394941F885
:104990002400601CC4B20C2CD8DB7FBD10B50446CB
:1049A0009022344920460AF0CCFE10BD10B50446D2
:1049B000902221462F4830300AF0C3FE10BD00B5CA
:1049C000B3B0FEF7C0FF012818DB40F6B8312B4822
:1049D00001F0F7F890B10021284801F0F2F80DF14C
:1049E0000600FFF7DBFFA5208DF80400AA208DF854
:1049F0000500C82201A9002007F0E2FE33B000BD87
:104A000001E0411E88B20028FBDC704710B5044667
:104A100007E0601E84B241F28830FFF7F1FF02F038
:104A200019F9002CF5DC10BD00B5B3B01920FFF763
:104A3000EDFFC82201A9002007F0D7FE9DF8050070
:104A4000AA2809D11920FFF7E1FF0DF10600FFF7B1
:104A5000ADFF1920FFF7DAFF33B000BD0EB500201F
:104A60008DF800008DF801000222694607F0A8FECB
:104A70000EBD00005C930020800E0020840E0020FC
:104A800001EB4102F74B03EB8202036813607047AE
:104A900001EB4102F44B03EB4202036813607047E1
:104AA00010B504461822F14920460AF04AFE10BD0E
:104AB00070B59CB005460E462C4614B900201CB0BB
:104AC00070BD02202070608043F23040A08032220E
:104AD000214601A80AF035FE0120F0E770B59CB030
:104AE00004460E462546A879E04908713222294637
:104AF00001A80AF026FE01201CB070BD70B59CB064
:104B000005460E462C4614B900201CB070BD02208C
:104B100020700920608043F23240A080D348407961
:104B2000E071D248407902280DDAD048407900EB94
:104B30004000CC4901EB80010A6804F10800A26042
:104B40008988A18106E0C749CA6804F10800A2600B
:104B5000098AA1814FF03202214601A80AF0F1FD35
:104B60000120D2E730B502460B46114609B90020B4
:104B700030BD022008700920488043F23940888007
:104B8000BA484079C871B948407902280DDAB74867
:104B9000407900EB4000B34C04EB8004D4F806509D
:104BA00001F108008D6064898C814FF00100DFE71E
:104BB00070B59CB004460E462546E879AB490871AD
:104BC0003222294601A80AF0BCFD01201CB070BDAC
:104BD00030B502460B46114609B9002030BD02200F
:104BE00008700920488043F2354088809F4840790A
:104BF000C8719E48407902280CDA9C48407900EB45
:104C00004000994C04EB4004256801F108008D60D8
:104C1000A4888C814FF00100E0E770B59CB0054698
:104C20000E462C4614B900201CB070BD0220207026
:104C30000420608043F23340A0808C484079E071CA
:104C40008A48817921723222214601A80AF079FD31
:104C50000120E9E770B59CB005460E462C46207A47
:104C6000824908710846007959280FD1A0794979FD
:104C700088420BD1E0797D498979884206D110229A
:104C800004F109017948C01D0AF05BFD322221467A
:104C900001A80AF056FD01201CB070BD10B50246F7
:104CA0000B46114609B9002010BD022008700820EB
:104CB000488043F2384088806C484079C8716B481E
:104CC00084790C720446D4F80740C1F809400120E9
:104CD000EAE710B502460B461146087A592811D169
:104CE0008879624C6479A04208D1C8795F4CA47974
:104CF000A04203D159205D4C207106E04E205B4C50
:104D0000207102E0087A594C2071012010BD5748EB
:104D10000079592801D1012070470020FCE70020CC
:104D2000524908717047514A50719171704710B5DE
:104D300004464E48407904EBC4014D4A02F8110084
:104D40004A48807904EBC40102EB4101487004EB4E
:104D5000C40102EB4101881C10224449C91D0AF01C
:104D6000F0FC10BD10B504464422414920460AF02B
:104D70002DFD10BD10B544213D480AF083FD10BD46
:104D800030B587B004463B4A07CA04AB07C30025C9
:104D900000200290039024B9182134480AF050FDF5
:104DA000C6E03248007830B1012831D002286ED0F8
:104DB00003287DD198E002E0052000F01AFF0021D1
:104DC000012008F096FD0028F6D1284840884028A8
:104DD00009D126480079592805D124480078401C7B
:104DE0002249087013E021484088402805D11F4817
:104DF0000079332801D1012509E0402005901B49A5
:104E000048800020087104A9012008F00FFD8EE001
:104E100002E0052000F0EDFE0021012008F069FD10
:104E20000028F6D111484088802825D10F48007904
:104E3000592821D16846FBF7AFFADDE90001CDE939
:104E400002019DF808002D2805D108480078801C33
:104E5000064908701AE005480078401C03490870AC
:104E600014E014E0880E0020A00E0020EC93002037
:104E7000049400204CFD000880200590744948806F
:104E80000020087104A9012008F0D0FC4FE002E0E6
:104E9000052000F0AEFE0021012008F02AFD0028C8
:104EA000F6D16B484088B0F5807F07D1684800E0B4
:104EB0003BE00079592801D1042514E0644840887A
:104EC000B0F5807F04D16248007908B102250AE07C
:104ED0004FF4807005905E4948800020087104A955
:104EE000012008F0A3FC22E002E0052000F081FE92
:104EF0000021012008F0FDFC0028F6D1544840882C
:104F0000B0F5006F05D152480079592801D1052527
:104F10000AE04FF4006005904D4948800020087178
:104F200004A9012008F082FC01E0032500BF00BFB6
:104F3000284607B030BD3EB50446464A07CA8DE84C
:104F40000700002524B9182141480AF079FC7CE0CB
:104F50003F48007820B1012825D0022872D145E0D1
:104F600002E0052000F045FE0021012008F0C1FC10
:104F70000028F6D136484088402809D134480079C5
:104F8000592805D132480078401C3149087009E0A1
:104F9000402001902E494880002008716946012078
:104FA00008F044FC50E002E0052000F022FE002161
:104FB000012008F09EFC0028F6D125484088802872
:104FC00009D123480079592805D121480078401C8F
:104FD0001F49087009E0802001901D494880002089
:104FE00008716946012008F021FC2DE002E005204F
:104FF00000F0FFFD0021012008F07BFC0028F6D125
:1050000013484088B0F5007F05D111480079592830
:1050100001D1042514E00E484088B0F5007F04D18A
:105020000B48007908B102250AE04FF48060019036
:1050300007494880002008716946012008F0F6FB06
:1050400002E0FFE7032500BF00BF28463EBD000089
:10505000EC93002058FD0008A048008841F28831F8
:10506000884201DD084670479C480088FBE7002025
:105070009A490880704738B5044620128DF8000020
:10508000E0B28DF801000221684600F07FFD8DF846
:10509000020003226946102001F0C2F9032269468A
:1050A0004FF4826007F08CFB38BD1CB5032201A9C8
:1050B000102001F0C0F9032269464FF4826007F026
:1050C00094FB022101A800F061FD9DF806108842C2
:1050D0000ED19DF805009DF8041000EB01207F49DA
:1050E0000880032201A94FF4826007F069FB2DE0DC
:1050F0000221684600F04AFD9DF8021088420DD159
:105100009DF801009DF8001000EB01207349088014
:1051100003226946102001F083F917E000206F494F
:1051200008808DF804008DF80500022101A800F028
:105130002DFD8DF80600032201A9102001F070F961
:10514000032201A94FF4826007F03AFB1CBD70B541
:1051500004460D461646A520614901EB441108702E
:105160005F4800EB441045705D4901EB441101F1CB
:105170000C0001F081FA5A4800EB4410868370BDA0
:105180002DE9F04104460D4616461F46544800EBF3
:1051900044104570524800EB44108772504901EBAF
:1051A000441101F1140001F067FA4D4800EB44107E
:1051B000316840F8021F71684160494A02EB4412AD
:1051C0001E32474B03EB4413D21A91B2444A02EB0E
:1051D000441000F0DBFC424901EB4411887702E007
:1051E000032000F006FD3F4800780128F8D0012098
:1051F0003C4908703948008841F2883190FBF1F24F
:1052000001FB1200002101EB0028354901EB44109D
:105210002022414608F0AAFF0020324908702F489A
:105220000088401C2D4908800846008842F2107111
:10523000884205DB29480088A0EB610027490880E7
:1052400026480088FFF717FF254901EB441020216D
:105250000AF0F6FABDE8F08170B505460C461F4825
:105260000088854233DA41F2883085422FDA1B48C4
:105270000088401B401E85B202E0032000F0B9FC0C
:10528000194800780128F8D001201749087041F228
:10529000883095FBF0F100FB1150002101EB002656
:1052A00020223146204608F03BFF00200E490870BE
:1052B0002078A5280BD104F11E00001B81B22046E6
:1052C00000F064FCA17F884201D1012070BD202143
:1052D00020460AF0B5FA0020F8E70000AE0E0020E4
:1052E0008C940020AC0E0020AD0E002010B50024E0
:1052F000FEF7F8FAF7490860FFF712FBF649086075
:1053000000BF09E0F4490968603101EB8400002125
:1053100000F057FC601CC4B20C2CF3DB10BD10B5C0
:105320000446EC480068005DFF2871D0E948006839
:10533000005DFE28F9D004EB8400E84901EB800011
:105340008089B0F5AF7F0BDB0620E249096808557C
:10535000012004EB8401E14A02EB8101487209E07B
:105360000020DC490968085504EB8401DB4A02EBA4
:1053700081014872D7480068005D06284DD104EBD2
:105380008400D64901EB8000008AB8B904EB8400A0
:1053900001EB8000408A012804D0022803D00328B2
:1053A0000BD105E009E00120CA490968085504E06D
:1053B0000220C8490968085500BF2EE004EB8400AC
:1053C000C64901EB8000007CC0F3401020B10320EF
:1053D000C0490968085520E004EB8400BF4901EB8F
:1053E0008000008AC0F3402020B10420B949096838
:1053F000085512E004EB8400B84901EB8000007C02
:1054000010F0010F05D00520B2490968085504E0E5
:105410003EE00720AF4909680855AE480068005DC6
:10542000012804D0AB480068005D02280DD1AC48CB
:10543000005D50B90120AA490855A64909681831EC
:1054400001EBC40001F018F922E0A2480068005DF9
:10545000F0B90020A24908559E480068183000EBBA
:10546000C4000021016041609B48006840F824109E
:1054700099490968603101EB840041F2883100F0FC
:10548000A0FB28B1002194480068303040F8241077
:1054900010BD2DE9F8430646894615460024002034
:1054A000009000BF00BF301900880090BDF80000D8
:1054B00000B2002811DDBDF8000000F0FDFB07463A
:1054C0004FF47A7007FB00F84FEA183005EB8501BE
:1054D000824A02EB8101488106E0002005EB85014C
:1054E0007E4A02EB81014881A41C3019008800909B
:1054F000BDF8000000F0E0FB0746C7EB07104FEADD
:105500004018C8F30F3105EB8500744A02EB8000A8
:105510008181A41C301900880090BDF8000000F0C3
:10552000CBFB0746C7EB07104FEA4018C8F30F3113
:1055300005EB8500694A02EB8000C181A41C241D93
:10554000301900880090BDF8000000F0B5FB05EBB5
:105550008501624A02EB81010882A41CA41D301956
:1055600000880090BDF8000000F0A6FB05EB850167
:105570005A4A02EB8101488200BF2846FFF7CFFE5E
:10558000BDE8F8832DE9F843064688461446002511
:10559000002000900027701900880090BDF80000DE
:1055A00000F08AFB0746AD1C04EB84004B4931F840
:1055B0002000B84207D1012004EB8401474A02EBE6
:1055C0008101887106E0002004EB8401434A02EB6C
:1055D000810188712D1D701900880090BDF80000B0
:1055E00000F06AFB0746AD1C04EB84003B4901EB6D
:1055F00080004088B84207D1012004EB8401374A7B
:1056000002EB8101C87106E0002004EB8401334AFB
:1056100002EB8101C871BDE8F8832DE9F843054626
:10562000884614460026002000900027A81900880C
:105630000090BDF8000000F03FFB0746B61C04EBED
:105640008400264901EB80008088B84207D1012000
:1056500004EB8401214A02EB8101087206E000207C
:1056600004EB84011D4A02EB81010872BDE8F88356
:1056700070B505460C461646022C0FD0082C07D0F4
:10568000142C11D1324621462846FFF702FF0BE0C9
:10569000324621462846FFF775FF05E0324621468F
:1056A0002846FFF7BAFF00BF00BF70BD10B5CC2879
:1056B00007D1012201EB8103084C04EB83031A722A
:1056C00000BF00BF10BD70B505460E462C464CB954
:1056D000002070BDB00E0020B40E00200C960020FB
:1056E000FC9600206078042802D010280BD105E039
:1056F0002278A179E01DFFF7BBFF04E021786088E4
:10570000FFF7D4FF00BF00BF0120E2E702460B46CF
:1057100011460AB9002070470B70042048704FF4FE
:10572000C87048800A2088800120F4E702460B46B2
:1057300011460AB9002070470B7004204870C82039
:105740004880042088800120F5E702460B46114678
:105750000AB9002070470B7004204870CC204880A4
:105760000120888000BFF5E72DE9F04106460D468F
:105770001446DC4930460AF007F907460AF0E4F817
:1057800004EB8401D84A22F82100D84928460AF0BF
:10579000FBF807460AF0D8F804EB8401D24A02EB82
:1057A00081014880BDE8F081F8B507460E463C46C9
:1057B00000250020009007B9F8BD26701020607009
:1057C000C82060800420A0800820A07106EB86011C
:1057D000C54A32F8210000F06FFA0090E01D28441D
:1057E000BDF800100180AD1CE01D284400210160BF
:1057F0002D1D06EB8601BC4A02EB8101488800F0B2
:105800005BFA0090E01D2844BDF800100180AD1C3B
:105810000120D1E7014601EB8100B34A02EB800091
:10582000007A704710B5012807D1012201EB8103EE
:10583000AD4C04EB83039A8006E0002201EB810368
:10584000A94C04EB83039A80002201EB8103A64C50
:1058500004EB83031A7210BDF8B505460E462C46BC
:105860000020009005B9F8BD267010206070CC2093
:1058700060800120A0800220A07106EB86019A4A78
:1058800002EB8101888800F017FA0090BDF8000053
:10589000A4F807000120E6E710B586B004A8FDF7DC
:1058A00007FD934A07CA01AB07C30C24914800784F
:1058B000002879D103F0EFFC8F49086000208F4960
:1058C00008709FE0FAF76DFD00208D49087032E006
:1058D0008B48007800EB8000834901EB80008079E1
:1058E00038B18748007800EB800001EB8000C07978
:1058F000E0B901F0AFF9824A1278DDE90401FFF75F
:1059000033FF022002907E480078039001A9022014
:1059100007F08CFF04E001F09DF9022000F069F926
:105920000021012007F0E5FF0028F4D17448007839
:10593000401C7349087072480078A042C8DB704868
:10594000007800EB8000684901EB8000807938B175
:105950006B48007800EB800001EB8000C07910B943
:105960003C2000F046F90020654908702DE06448AD
:10597000007800EB80005C4901EB8000807938B151
:105980005F48007800EB800001EB8000C079B8B977
:1059900001F060F90420029059480078039001A9B1
:1059A000022007F043FF05E098E001F053F90220E0
:1059B00000F01FF90021012007F09BFF0028F4D11F
:1059C0004F480078401C4E4908704D480078A0426E
:1059D000CDDB4B48007800EB8000434901EB8000B1
:1059E000807938B14648007800EB800001EB8000F8
:1059F000C07910B93C2000F0FCF840480078401C09
:105A00003E4908703D4800780328FFF65BAF002050
:105A10003A49087054E0FAF7C4FC0020384908708D
:105A200039E03748007800EB80002F4901EB800017
:105A3000007A58BB01F00EF93148007800EB800085
:105A4000294901EB8000407A012805D12C480178D2
:105A50000120FFF7E7FE04E0294801780020FFF766
:105A6000E1FE0320029026480078039001A902205D
:105A700007F0DCFE04E001F0EDF8022000F0B9F8D8
:105A80000021012007F035FF0028F4D11C480078E0
:105A9000401C1B4908701A480078A042C1DB184816
:105AA000007800EB8000104901EB8000007A10B90B
:105AB000502000F09EF811480078401C0F490870F3
:105AC0000E4800780328A6DB01200A49087003F07D
:105AD000E2FB09490968401A07490860054800784F
