:020000040800F2
:10000000B0D900207D9000088590000887900008F6
:10001000899000088B9000088D9000080000000077
:100020000000000000000000000000008F900008A9
:10003000919000080000000097760008AF77000854
:1000400097900008979000089790000897900008F4
:1000500097900008979000089790000897900008E4
:1000600097900008979000089790000897900008D4
:100070009790000897900008C3EC000873F10008FF
:100080009790000893E80008979000089790000860
:1000900097900008979000089790000897900008A4
:1000A0009790000897900008979000089790000894
:1000B0009790000897900008979000089790000884
:1000C0009790000897900008979000089790000874
:1000D000979000081FE50008C7E90008F9ED00083F
:1000E0009790000897900008979000089790000854
:1000F0009790000897900008979000089790000844
:100100009790000897900008979000089790000833
:10011000A7F20008979000089790000897900008B1
:100120009790000897900008979000089790000813
:100130009790000897900008979000089790000803
:1001400097900008979000089790000897900008F3
:100150009790000897900008E9E30008979000083E
:1001600097900008979000089790000897900008D3
:1001700097900008979000089790000897900008C3
:100180009790000800F002F800F05AF80AA090E8F2
:10019000000C82448344AAF10107DA4501D100F042
:1001A0004FF8AFF2090EBAE80F0013F0010F18BFB5
:1001B000FB1A43F001031847C8FA0000E8FA0000F0
:1001C0000A444FF0000C10F8013B13F0070408BF7D
:1001D00010F8014B1D1108BF10F8015B641E05D01B
:1001E00010F8016B641E01F8016BF9D113F0080FD0
:1001F0001EBF10F8014BAD1C0C1B09D16D1E58BF62
:1002000001F801CBFAD505E014F8016B01F8016B98
:100210006D1EF9D59142D6D370470000002300240B
:1002200000250026103A28BF78C1FBD8520728BF06
:1002300030C148BF0B6070471FB51FBD10B510BD62
:100240000FF016FA1146FFF7F7FF00F01AF80FF05B
:1002500034FA03B4FFF7F2FF03BC0FF039FA0000E1
:1002600010B505F0BFFF05F0C4FF10BD00F063F846
:1002700001F055FE04F018FA02E0322005F085FB8B
:10028000FBE7002407F0E6F90446FFF7E9FF04F076
:10029000ADFA05F0E4FF0A23084A0021AFF233006B
:1002A00005F0BFFF204607F0D9F905F0D2FF02E0C4
:1002B0000A2005F06AFBFBE7704700007821002068
:1002C00001202B4908700320487025200881294807
:1002D0004860002008832849086070472548C06AA4
:1002E00000687047012022490877012120484177A2
:1002F0000621818421490162002181860020204954
:10030000086070471D48C06A00687047012018499E
:1003100081F838000221164880F839100621A0F82B
:1003200040101849C1630021A0F8501070471548CB
:10033000C06A0068704710B5FFF7C2FFFFF7D2FF31
:10034000FFF7E4FF0723104A09491C310F4808F062
:1003500015FB08230E4A06490C4808F00FFB05233D
:100360000C4A03493831094808F008FB10BD000069
:100370007C2100200400002038090020F406002021
:1003800040090020180800201053002075D80008EC
:10039000CC390020BC6B0020FB4A06CAC0E9001221
:1003A00070473EB5F94A07CA8DE807000024F848AF
:1003B00000780F2827D2DFE800F00827466584A3DD
:1003C000C2E1FDFCFBFAF9F8F700F2480168F248D7
:1003D00005F0C3FA012816D1F048007810F0010F9B
:1003E0000CD0EE48006820F00100EC4908600124C0
:1003F000012002900021E84805F0AFFAE4480078B7
:10040000401CE3490870B7E1E2480168E24805F0A2
:10041000A4FA012816D1E1480078C0F3400060B189
:10042000DE48006820F00200DC4908600124042056
:1004300002900021D84805F090FAD5480078401C79
:10044000D349087098E1D3480168D34805F085FA8C
:10045000012816D1D1480078C0F3800060B1CF48A0
:10046000006820F00400CD490860012406200290B5
:100470000021C94805F071FAC5480078401CC449FC
:10048000087079E1C3480168C34805F066FA01289D
:1004900016D1C2480078C0F3C00060B1BF48006800
:1004A00020F00800BD4908600124082002900021C6
:1004B000B94805F052FAB6480078401CB4490870B3
:1004C0005AE1B4480168B44805F047FA012816D14A
:1004D000B2480078C0F3001060B1B048006820F066
:1004E0001000AE49086001240A2002900021AA48A9
:1004F00005F033FAA6480078401CA54908703BE196
:10050000A4480168A44805F028FA012816D1A34898
:100510000078C0F3401060B1A048006820F02000CF
:100520009E49086001240C20029000219A4805F0A1
:1005300014FA97480078401C954908701CE19548CA
:100540000168954805F009FA012816D1934800780A
:10055000C0F3801060B19148006820F040008F49DE
:10056000086001240F20029000218B4805F0F5F966
:1005700087480078401C86490870FDE0854801687E
:10058000854805F0EAF901281ED184480078C0F3B7
:10059000C010A0B18148006820F080007F49086049
:1005A00001241120029006E0C9E0A9E089E069E099
:1005B00049E029E009E00021774805F0CEF97448C8
:1005C0000078401C72490870D6E072480168724891
:1005D00005F0C3F9012816D170480088C0F3002047
:1005E00060B16E48006820F480706C490860012496
:1005F000132002900021684805F0AFF964480078A4
:10060000401C63490870B7E062480168624805F021
:10061000A4F9012816D161480088C0F3402060B1D8
:100620005E48006820F400705C49086001241520D1
:1006300002900021584805F090F955480078401C78
:100640005349087098E053480168534805F085F90C
:10065000012816D151480088C0F3802060B14F486E
:10066000006820F480604D49086001241720029042
:100670000021494805F071F945480078401C44497B
:10068000087079E043480168434805F066F901289D
:1006900016D142480088C0F3C02060B13F480068CE
:1006A00020F400603D4908600124192002900021D7
:1006B000394805F052F936480078401C3449087032
:1006C0005AE034480168344805F047F9012816D14A
:1006D00032480088C0F3003060B13048006820F430
:1006E00080502E49086001241B20029000212A48D6
:1006F00005F033F926480078401C254908703BE096
:1007000024480168244805F028F9012816D1234817
:100710000088C0F3403060B12048006820F40050E9
:100720001E49086001241D20029000211A4805F08E
:1007300014F917480078401C154908701CE015484A
:100740000168154805F009F9012814D113480088FB
:10075000C0F3803060B11148006820F480400F4938
:10076000086001241F20029000210B4805F0F5F8D5
:1007700000200749087000BF00BF012C03D1694663
:1007800000200CF01FFF3EBDA009002078F90008F2
:10079000510900205809002054090020BC090020FC
:1007A0001FB5FD4A07CA01AB07C3FC48407820B11A
:1007B00001280ED0022833D119E001F093FC01A9E1
:1007C00000200CF0FFFEF5484078401CF3494870CB
:1007D0002AE001F0D5FC0420029001A900200CF0D1
:1007E000F1FEEE484078401CEC4948701CE041F2B4
:1007F0008831EB4805F0B1F870B10021E84805F008
:10080000ACF865200090009802F0D9FA1B20029005
:1008100001A900200CF0D6FE0020E049487003E05A
:100820000020DE49487000BF00BFDE480078022883
:1008300002D10020DB4908701FBD30B591B04421C2
:1008400068460EF0EBFE002403F08AFC044601200B
:1008500004EB4401D44A126802F8210004EB44007E
:10086000D149096801EB80008472684604F05CF9A4
:1008700004EB4400CC49096801EB8000DDF802106C
:1008800040F8011FDDF80610416002F0ABFC0546A0
:100890002A460021204604F03CFBC448006800784A
:1008A000401CC2490968087011B030BD30B58DB028
:1008B000B94A0C3207CA0AAB07C300241C2103A89B
:1008C0000EF0ACFEB5484078062874D2DFE800F0A0
:1008D00003256385A3AF0021B54805F03EF802204B
:1008E000B0490870002004F02DF90020ADF8240074
:1008F0000A2207A968460EF035FE03A80FC802F0C9
:1009000050FB2A200B900AA900200CF05BFEA348A4
:100910004078401CA1494870A2E00021084604F03C
:10092000E4F8012004F00EF90446032C01D0022C57
:1009300003D1002004F006F92CE0012C15D1002091
:1009400004F000F90720ADF824000A2207A9684640
:100950000EF008FE03A80FC802F023FB2A200B901C
:100960000AA900200CF02EFE14E0042C12D1002065
:1009700004F0BFF8002004F0E5F802F033FC012891
:1009800003D104208549487004E084484078401C25
:100990008249487064E00121002004F0A6F801209B
:1009A00004F0D0F80446032C01D0022C04D100201E
:1009B00004F0C8F810E052E0042C0DD1012004F03E
:1009C00098F8002004F0BEF8002004F096F973486F
:1009D0004078401C7149487042E00121002004F039
:1009E00084F8012004F089F90446032C01D0022C7C
:1009F00003D1002004F0A6F80CE0042C0AD1012059
:100A000004F077F8002004F078F964484078401C3E
:100A10006249487024E020200B900AA901200CF0C4
:100A2000D1FD5E484078401C5C49487018E004F0F5
:100A300050F880B1FFF701FF00200B90192001F062
:100A400094FA0AA900200CF0BDFD54484078401CDF
:100A50005249487002E004205049487000E000BF4D
:100A600000BF41F28831524804F077FF88B100207E
:100A70004C4908700CF0E4FB054601F076FA0020C2
:100A80000B900AA90CF09EFD002004F05BF804F026
:100A900028F80DB030BD3EB53F4A183207CA8DE880
:100AA000070000243D48407810B1012827D109E013
:100AB000694601200CF086FD38484078401C3749D3
:100AC00048701DE004F005F8A8B904F00AF8002009
:100AD000344908700CF0B4FB0446204601F045FA96
:100AE0000020019069460CF06DFD2C484078401CB8
:100AF0002A49487002E000202849487000E000BF01
:100B000000BF3EBD10B58CB0234A243207CA09ABE2
:100B100007C3142104A80EF081FD002400200090DA
:100B20000190029003901D484078052878D2DFE8B4
:100B300000F003122245510000201E49088001F0F8
:100B400052FB09A900200CF03DFD14484078401CE0
:100B500012494870C6E01748008801F027FC0820B9
:100B60000A9009A900200CF02DFD0C484078401C8B
:100B70000A494870B6E001F0A9FB06200A9009A9CD
:100B800000200CF01FFD0C4801F0C2FB0348407828
:100B9000401C02494870A5E084F90008A009002023
:100BA0005C090020B0090020B4090020B809002029
:100BB0006009002064090020A87C002007200A901A
:100BC00009A900200CF0FEFCFA484078401CF949C5
:100BD000487087E004A801F09BFB082206A9F648AC
:100BE0000EF04FFCB8B101F00CFBF3480838069941
:100BF00081600799C16005200A9009A900200CF0C6
:100C0000E1FC02E0032004F0C0FE002108460CF0E5
:100C10003CFD0028F6D101F083FB00285DD003E005
:100C20005FE00A2004F0B1FE002108460CF02DFD23
:100C30000028F6D1684602F0B0FC0822DF4906A879
:100C40000EF01FFC28B10822694606A80EF019FC18
:100C500080B9132001F089F900200A9009A90CF04D
:100C6000B1FC0020D6490880D2484078401CD149C8
:100C7000487035E00822D34906A80EF002FC28B1DE
:100C8000082202A906A80EF0FCFB00BB03F044FA00
:100C900001280BD0022807D0032809D1002403F033
:100CA0004BFFFFF7CAFD03E0142401E0152400BF49
:100CB00000BF204601F059F900200A9009A90CF064
:100CC00081FCBC484078401CBA49487008E00120CB
:100CD000BB490880B749487002E00320B549487015
:100CE00000E000BF00BF0CB010BD00B587B0B64A31
:100CF00007CA04AB07C3002003900290B3A00068AA
:100D00000190B348007820B1012811D0022839D1D0
:100D100018E0039802F002FA2C20059004A90020A4
:100D20000CF050FCAA480078401CA94908702AE041
:100D300004A900200CF046FCA5480078401CA449FA
:100D4000087020E002F0F0F90390BDF80C000128D3
:100D500014D100209E4908709649487008460078D2
:100D600013280ED101980290029802F0A1FC02F023
:100D7000A4FC002101A803F065FD02E001209449D4
:100D8000087000E000BF00BF07B000BD10B598B00C
:100D90008D486038D0E900128068CDE915121790AF
:100DA000002011901290139014900F90109089A22F
:100DB00007CA0CAB07C30020089009900A900B905B
:100DC00005900690079004907A4840780A286FD2E0
:100DD000DFE800F0051A26323E4A56626F7B02F0C9
:100DE00062FC0490002104A803F02CFD02F0B9FC81
:100DF0000920169015A900200CF0E4FB6D484078FE
:100E0000401C6C494870D2E10B20169015A90020B7
:100E10000CF0D8FB67484078401C66494870C6E132
:100E20000D20169015A900200CF0CCFB61484078ED
:100E3000401C60494870BAE10E20169015A90020A8
:100E40000CF0C0FB5B484078401C5A494870AEE14A
:100E50001020169015A900200CF0B4FB55484078DE
:100E6000401C54494870A2E10C20169015A900209E
:100E70000CF0A8FB4F484078401C4E49487096E162
:100E80000F20169015A900200CF09CFB49484078D3
:100E9000401C484948708AE11120169015A900208D
:100EA0000CF090FB43484078401C424948707EE17A
:100EB0007CE10A20169015A900200CF083FB3D4828
:100EC0004078401C3B49487071E101F038FB10B993
:100ED00001F0FBFAA8B10B20169015A900200CF028
:100EE00071FB02E00A2004F050FD002108460CF0DE
:100EF000CCFB0028F6D10D20169015A900200CF08F
:100F000061FB01F0BDFB18B901F084FB00283ED065
:100F100001F0B3FB41F28831884202DC01F08FFB23
:100F200030B301F08CFB38B12B2001F01EF800200B
:100F3000169015A90CF046FB02F077FA044601F072
:100F400099FB08A802F006FA08A801F051FB02E09C
:100F50000A2004F01AFD002108460CF096FB002838
:100F6000F6D10E20169015A900200CF02BFB0EE0F8
:100F700001F083FB044602F05BFA02F05CFA08A879
:100F800001F03FFB08A802F0EEF902F0F5F901F0DC
:100F90000CFCA0B301F006FCB0F5167F30DD02F0CA
:100FA000A0FA044601F0FBFB02F07DFB039001F088
:100FB0009CFB18E0A0090020B07C002066090020FE
:100FC000640900206E09002014FA0008FFFFFFFFEB
:100FD000890900201F1C1F1E1F1E1F1F1E1F1E1FF2
:100FE0000A2004F0D2FC002108460CF04EFB002839
:100FF000F6D11020169015A900200CF0E3FA06E0B7
:1010000001F0D0FB044602F06FFA02F070FA01F032
:101010007EFB90B301F09AFBD0B902F062FA04466D
:1010200001F0BDFB02F03FFB039001F05EFB02E02C
:101030000A2004F0AAFC002108460CF026FB002838
:10104000F6D11020169015A900200CF0BBFA14E080
:1010500001A801F042FB01A807C805AB07C308229D
:1010600004A905A804F085FD049802F021FB02F014
:1010700024FB002104A803F0E5FB01F0DBF90028C4
:101080007BD001F0C8F911A801F0CCF911A8007AC1
:10109000303811A909893022C2EB212101EB8101ED
:1010A00000EB410080B2ADF83C00BDF84E00303896
:1010B000BDF84E10C2EB212101EB810100EB410094
:1010C000C0B28DF83E00BDF850003038BDF8501069
:1010D000C2EB212101EB810100EB4100C0B28DF890
:1010E0003F00BDF844003038BDF84410C2EB212168
:1010F00001EB810100EB4100C0B28DF84000BDF86A
:1011000046003038BDF84610C2EB212101EB8101C9
:1011100000EB4100C0B28DF84100BDF84800303806
:10112000BDF84810C2EB212101EB810100EB410029
:10113000C0B28DF842009DF8400018281ADA9DF8D8
:1011400041003C2816DA9DF842003C2812DA9DF84E
:101150003E0078B19DF83E000C280BDC9DF83F0066
:1011600040B19DF83F109DF83E00401E0CAA105C57
:10117000814213DD01F031F903E013E00A2004F0AD
:1011800004FC002108460CF080FA0028F6D1092062
:10119000169015A900200CF015FA03E0DDE90F0107
:1011A00005F086F80520FB49487000E000BF00BF4D
:1011B000FFF79BFD18B010BD70B592B00024202140
:1011C0000AA80EF02BFAF44A07CA07AB07C300259A
:1011D000F048407830B101280DD002285AD00328B9
:1011E00077D164E00020ED490880EA484078401C4F
:1011F000E849487094E0002423E002E00A2004F06B
:10120000C4FB002108460CF040FA0028F6D1E3495F
:101210000988214488B20AA903F000FF40B1DF48E1
:1012200000882044401C81B20AA801F0F1FA01E0D4
:1012300001F0E8FA099407A900200CF0C3F9601C3A
:10124000C4B20A2CD9DB03F0E9FD08B9012006E09D
:1012500003F0E4FD401E0A2190FBF1F0401C85B232
:10126000CE4800880A2190FBF1F0401C86B2002392
:101270001A462946304601F0CCFC13200890002085
:10128000099007A90CF09EF9C2484078401CC1495A
:10129000487045E0142008900020099007A90CF040
:1012A00091F9BC484078401CBA49487038E00DF1CB
:1012B0001A0106A801F0C7FCBDF8180088B1B748AC
:1012C00000880A2806DDB54800880A38B349088036
:1012D00003E021E00020B14908800120AD494870B9
:1012E00019E0BDF81A0098B103F098FDAB490988E0
:1012F0000A31884208DDA94800880A30A7490880D9
:101300000120A449487006E00220A249487002E08A
:101310000220A049487003E000209E49487000BFA9
:1013200000BF12B070BD3EB59B4A0C3207CA8DE8B3
:1013300007009848407848B90021994804F00DFB0F
:1013400094484078401C9349487000E000BF00BFBB
:101350004FF4FA61924804F000FB60B1002190481C
:1013600004F0FBFA0BF06CFF044600F0FEFD69464A
:1013700000200CF027F93EBD0EB5874A183207CA87
:101380008DE807008348407820B1012812D0022858
:1013900039D11BE00021834804F0DFFA01F090FC12
:1013A000694600200CF00EF97A484078401C7949D3
:1013B000487029E016200190694600200CF002F9DF
:1013C00074484078401C734948701DE001F07CFC73
:1013D000A8B101F075FC03F02CFD002003F02DFDF9
:1013E00000200190022000F0C0FD694600200CF0B2
:1013F000E9F868484078401C6649487002E00120DE
:101400006449487000E000BF00BF41F28831654880
:1014100004F0A3FA58B10021624804F09EFA0220B9
:1014200000F0A3FD0020019069460CF0CBF80EBD42
:101430000EB5594A243207CA8DE80700554840784E
:1014400020B1012812D0022838D11BE000215648D3
:1014500004F083FA01F034FC694600200CF0B2F885
:101460004C484078401C4B49487028E017200190B8
:10147000694600200CF0A6F846484078401C4549D3
:1014800048701CE001F049FCA0B101F042FC0120D1
:1014900046490968487000200190132000F065FD5E
:1014A000694600200CF08EF83A484078401C3949D3
:1014B000487002E001203749487000E000BF00BFDB
:1014C00043F69821384804F048FA58B100213648CC
:1014D00004F043FA132000F048FD00200190694613
:1014E0000CF070F80EBD1FB52B4A303207CA01ABA5
:1014F00007C3002000902748407820B1012812D06F
:1015000002285CD11BE00021294804F026FA01F0F2
:1015100029FC01A900200CF055F81E484078401C19
:101520001C4948704CE01920029001A900200CF0E1
:1015300049F818484078401C1649487040E0684611
:1015400001F017FCBDF800000C2803DC1748006808
:10155000807818B100200F4948702FE0BDF80200D4
:1015600040B30120114909688870BDF80000401E91
:10157000C1B20E480068C170132000F0F6FC0020D4
:10158000029001A90CF01EF802484078401C014965
:10159000487013E0A0090020C0F900087609002077
:1015A000780900207C09002080090020B80900206B
:1015B00084090020FFE70120FE49487000E000BFD9
:1015C00000BF43F69821FC4804F0C7F958B1002148
:1015D000F94804F0C2F9132000F0C7FC0020029083
:1015E00001A90BF0EFFF1FBD1FB5F44A07CA01ABFD
:1015F00007C3F048407870B965200090009801F06A
:10160000DEFB01A900200BF0DDFFEA484078401C1A
:10161000E849487003E00020E649487000BF00BF79
:101620001FBD00B593B0E54A0C3207CA10AB07C323
:1016300014210BA80DF0F2FF142106A80DF0EEFF07
:10164000DC48407806287DD2DFE800F0030C253D19
:1016500047550020DA490870D6484078401CD549E3
:101660004870C4E006A801F0C3FBD5480078ADF887
:101670002A000A98009006A80FC801F0C8FB28208D
:10168000119010A900200BF09DFFCA484078401C23
:10169000C8494870ABE00BA801F0AAFB0020ADF8E8
:1016A0003C000F9800900BA80FC801F025FC2720E4
:1016B000119010A900200BF085FFBE484078401C17
:1016C000BC49487093E010A900200BF07BFFB9489B
:1016D0004078401CB749487089E001F0CBFB2820D6
:1016E000119010A900200BF06DFFB2484078401C0B
:1016F000B04948707BE00BA801F008FCBDF83C0045
:1017000001286FD1BDF82C00BDF83410884261D19A
:10171000BDF82E10BDF8360081425BD1BDF8301007
:10172000BDF83800814255D1BDF83210BDF83A00FD
:1017300081424FD1BDF82C00B0F5405F4ADBBDF8C7
:10174000340000E052E0B0F5405F43DB02A801F056
:1017500024FF98480078072817D1DDE90B01CDE96F
:10176000020102A80FC801F02BFF01F030FF132087
:1017700000F0FBFB0020119010A90BF023FF8D4817
:101780004078401C8B4948702FE0082202A90BA822
:101790000DF077FEB8B1DDE90B01CDE9040102A837
:1017A0000FC801F00DFF01F012FF132000F0DDFB68
:1017B0000020119010A90BF005FF7E484078401CD6
:1017C0007C49487011E002207D4908700120794968
:1017D00048700AE002207A49087001207549487073
:1017E00003E0FFE703207349487000E000BF00BF3B
:1017F00013B000BD10B598B0704A243207CA15ABBB
:1018000007C3AFF6380000681490AFF640000068D8
:1018100013900020129000241190109018210AA813
:101820000DF0FCFE634840780C287DD2DFE800F024
:1018300006313D47FCFBFAF9F8F7F6F5614800215F
:1018400001600068099001F09EFC119801F0A3FB73
:1018500000205D4908701A215C480DF0BDFE012092
:101860005A49088308460169009141690191008B3A
:10187000ADF808001A22554903A80DF02EFE03A862
:101880000FC801F08EFB4B484078401C4949487016
:1018900058E22A20169015A900200BF093FE454827
:1018A0004078401C434948704CE215A900200BF0D9
:1018B00089FE40484078401C3E49487042E203A8F7
:1018C00001F07EFB1A2203A940480DF006FE01F04C
:1018D00055FC09903B480999016001F079FB60B91A
:1018E00001F0B5FB48B93948808A002871D03748E3
:1018F000808A354909788842F8D03448808A03289C
:1019000002DD0020314988823048C08A012802DD8A
:1019100000202E49C8822D48007D2B4908700846BA
:101920000078012806D000E00BE2022808D0032846
:1019300012D10BE0012023490880002048800BE0F1
:101940000220204908800020488005E000201D4931
:1019500008800220488000BF00BF01F014FB1190F6
:1019600001F04CFBA0B303201649088001F089FB6D
:1019700010B10120134948801448808A032802D0FE
:1019800001F07FFB18B104200A494870DAE1012018
:101990000E49088308460169009141690191008B55
:1019A000ADF808001A22094903A80DF096FD03A816
:1019B0000FC80FE0A009002084090020FCF90008EE
:1019C000880900209209002090090020BA7C00209C
:1019D00006E0ACE001F0E5FA0120FE49487026E09F
:1019E000FD4800210160416001810120FA4908831E
:1019F00008460169009141690191008BADF808002A
:101A00001A22F54903A80DF068FD03A80FC801F0DC
:101A1000C8FA0120EF49487007E07AE16DE14CE136
:101A20001EE1EFE0E2E0BFE085E08DF8400001F06C
:101A300028FB78B30120E949488001F0DFFA10B1B2
:101A40000320E6490880E448808A012806D0E2485D
:101A5000808A022802D001F0D1FA18B10420DD49B1
:101A600048706FE10120DC49088308460169009154
:101A700041690191008BADF808001A22D64903A8EC
:101A80000DF02BFD03A80FC801F08BFA0120D149FE
:101A900048701FE0FFE7D0480A3000210160416034
:101AA00001810120CC490883084601690091416900
:101AB0000191008BADF808001A22C74903A80DF068
:101AC0000CFD03A80FC801F06CFA0120C149487051
:101AD0008DF841009DF84000012803D19DF8440095
:101AE000012807D09DF84500012823D19DF8410029
:101AF00001281FD100208DF840008DF84100119879
:101B000001F049FA0320B4490883084601690091AD
:101B100041690191008BADF808001A22AE4903A873
:101B20000DF0DBFC03A80FC801F03BFA02E0022035
:101B3000A849487006E11A22A749A9480DF0CDFC32
:101B4000A548808A30B101280BD002280AD003288A
:101B50000ED100E000BF082214A99F4804F009F844
:101B600007E006E001F09FFD12901298149000E04B
:101B700000BF00BF002114A802F064FE9648808ACE
:101B8000032807D000201390082213A992480A3096
:101B900003F0EFFF002113A802F05CFE8D484078AF
:101BA000401C8C494870CDE002208D4908830846CE
:101BB0000169009141690191008BADF808001A227A
:101BC000874903A80DF089FC03A80FC801F0E9F9C3
:101BD0002A20169015A900200BF0F4FC02F081FFDA
:101BE0007C484078401C7B494870ABE02020169030
:101BF00015A901200BF0E6FC76484078401C754999
:101C000048709FE002F065FF30B3002002F09AFFB9
:101C10000021744803F0A1FE04207149088308469E
:101C20000169009141690191008BADF808001A2209
:101C30006B4903A80DF051FC03A80FC801F0B1F9DE
:101C40002A20169015A900200BF0BCFC61484078B2
:101C5000401C6049487002E006205E49487071E00F
:101C600041F288315F4803F078FEE8B90321002093
:101C700002F03BFF012002F065FF0446052C08D16D
:101C800006205749088353484078401C5149487002
:101C900012E0012C10D10520514908834D484078AD
:101CA000401C4C49487007E005204D4908834948CD
:101CB0004078401C4749487044E0002002F042FF51
:101CC00047480169009141690191008BADF8080016
:101CD0001A22434903A80DF000FC03A80FC801F025
:101CE00060F92A20169015A900200BF06BFC3948EA
:101CF0004078401C3749487024E02020169015A9F0
:101D000001200BF05FFC33484078401C314948709B
:101D100018E004A802F0A6FD182204A90AA80DF0F4
:101D200021FC02F0D6FE40B99DF82C0028B102F04B
:101D3000D8FE05202749487002E00A20254948704E
:101D400000E000BF00BFFEF7D0FF24480068099004
:101D500001F019FA2D20169015A900200BF032FC85
:101D600018B010BD10B500201A49087048701E4800
:101D7000406848601D480021017001F045FD1C4984
:101D8000086001F045FD1B4908601B480021016007
:101D900010BD3EB5194A07CA8DE807000024134854
:101DA000007800286DD1FEF7ADFA58BB64211448C5
:101DB00003F0D3FD58B10021114803F0CEFD0548D2
:101DC00000782D2803D0694601200BF0FBFB002092
:101DD000084918E0A0090020BA7C002092090020E0
:101DE000D47C00208C090020B8F80008B00900203D
:101DF000B4090020B8090020BC0900202CFA000812
:101E00009809002002E00968C88003E001204849E1
:101E10000968C88002F05DFE98B3464800782D2816
:101E20002FD002F05EFE42480068007A08BB02F044
:101E300073F9012812D0022806D0032818D10120F6
:101E40003D490870182413E014243C48006820F42D
:101E5000807000F580703949086009E01524374822
:101E6000006820F4006000F500603449086000BF9D
:101E700000BF204600F079F80020019069460BF081
:101E8000A1FB3EBD00B585B02D4A07CA02AB07C312
:101E9000684604F0BDFADDE9000100F09CF802A9F3
:101EA00000200BF08FFB05B000BD3EB50446244A70
:101EB0000C3207CA8DE80700204600F056F8694644
:101EC00000200BF07FFB3EBD0EB51D4A183207CA3D
:101ED0008DE80700FFF746FF4FF4486003F055FD1B
:101EE00000BF0BF0B0F903F0A7FB012801D1FFF709
:101EF00050FFFEF756FA4FF49671124803F02DFD8D
:101F000048B1694600200BF05DFB00210D4803F04D
:101F100024FDFFF7B7FF142003F037FDE1E710B50C
:101F20000C23094A0021094804F07BF910BD000088
:101F3000B8090020A0090020B0090020BC09002039
:101F400038FA00089C090020A47C0020C91E000863
:101F50000021F74801784FF6FF7000EA0121F448AC
:101F600040780143F3480088704701460812F24A5E
:101F700010705170012070475A2100F8011B012197
:101F800000F8011BEC49097800F8011BEA4949787F
:101F900000F8011B704710B503460C461A460BB9F2
:101FA000002010BD84201080822090700220D0700C
:101FB000101DFFF7E1FF0120F3E702460B46114633
:101FC0000AB90020704714200880832088700120FF
:101FD000C87000BFF6E703B543F23020D749C88088
:101FE000BDF800000A2190FBF1F201FB1200303035
:101FF000BDF800100A2291FBF2F1303100EB012014
:1020000081B2CE4801819DF802000A2190FBF1F2D5
:1020100001FB120030309DF802100A2291FBF2F110
:10202000303100EB0120C54948819DF803000A21A9
:1020300090FBF1F201FB120030309DF803100A22F0
:1020400091FBF2F1303100EB0120BC4988819DF811
:1020500004000A2190FBF1F201FB120030309DF8E0
:1020600004100A2291FBF2F1303100EB0120B34958
:1020700008809DF805000A2190FBF1F201FB120097
:1020800030309DF805100A2291FBF2F1303100EB5F
:102090000120AA4948809DF806000A2190FBF1F230
:1020A00001FB120030309DF806100A2291FBF2F17C
:1020B000303100EB0120A149888001200CBD70B5B2
:1020C00005460E462C460DB9002070BD4FF48850D1
:1020D00020808220A0700720E07020460BF08BF952
:1020E0000120F2E770B50024002501F08FFB0646C1
:1020F00000BF2FE0305D062817D005DC23D2DFE8D3
:1021000000F010161218191AFD281AD004DC07283E
:1021100012D0FC2817D110E0FE2811D0FF2812D1D0
:102120000CE0002510E001250EE005250CE002255D
:102130000AE000BF00BF00BF00BF00BF032503E0EF
:1021400000BF042500E000BF00BF7D4820F8145008
:10215000601CC4B20C2CCDDB70BD70B505460E46BC
:102160002C460DB9002070BD41F210102080822055
:10217000A0700C20E07020460BF03DF90120F2E742
:1021800010B501F057FB6E49088301F070FB6C49F4
:10219000488302F0DCF96A49888302F01AF90128C1
:1021A00002D103206649888302F010F9012802D188
:1021B00002206349888302F0CDF96149C88310BDCC
:1021C00070B505460E462C460DB9002070BD4FF483
:1021D000895020808220A0700420E07020460BF0FF
:1021E0000AF90120F2E72021002000BF06E001EB00
:1021F0000122544B23F81020421CD0B20428F6DBF5
:1022000070477EB500204F4B08334E4900BF03E0B6
:1022100020240C54441CE0B20828F9DB002004E020
:102220001C5C0DF80040441CE0B20728F8DB0020DD
:102230000FE0012404EB40041DF804201DF81040B9
:10224000012505EB40050DF805400DF81020441C54
:10225000E0B20428EDDB002008E01DF80040FF2C70
:1022600000D105E02A240C54441CE0B20828F4DB19
:1022700000BF082806DA03E020240C54441CE0B216
:102280000828F9DB00200BE001EB4004627811F82C
:10229000104001EB40056C7001F81020441CE0B2C6
:1022A0000428F1DB7EBD70B505460E462C460DB9FF
:1022B000002070BD41F2301020808220A0700420E8
:1022C000E07020460BF097F80120F2E72021002073
:1022D00000BF07E001EB01221A4B083323F810205E
:1022E000421CD0B20428F5DB704770B505460E4697
:1022F0002C460DB9002070BD4FF48A5020808220FA
:10230000A0700420E07020460BF075F80120F2E781
:1023100010B5044612220B4920460DF0DEF810BD20
:102320007CB50024002500200090019000BF1BE038
:102330002E0E0020D00900202C0E0020587D0020F9
:10234000667D0020867D0020FA4830F81400FF21C9
:10235000B1EB102F04D0F74810F81400FF2801D17A
:10236000012503E0601CC4B2042CEDDB00BF202279
:10237000082168460DF028F9042C06D10822694688
:10238000EC480DF07EF800B1012528467CBD0246E0
:102390000B4611460AB9002070474FF48A50088056
:1023A000832088700420C8700120F5E7E1490839CE
:1023B0000882704770B505460E462C460DB90020C0
:1023C00070BD41F2501020808220A0700120E0708A
:1023D00020460BF010F80120F2E710B5D648C0886F
:1023E000D649C880D4480189D4480181D24840895F
:1023F000D2494881D04880898881CF4800880880A8
:10240000CD4840884880CC48808888800E22CC48BF
:102410000DF063F810BD10B50E22C849C8480DF084
:102420005CF810BD10B504460E22C44920460DF0DC
:1024300054F810BD10B50E22C049C1480DF021F866
:1024400008B1012010BD0020FCE770B505460E461E
:102450002C460DB9002070BD4FF48B502080822097
:10246000A0700C20E07020460AF0C5FF0120F2E7C2
:1024700002460B4611460AB9002070474FF48B50B4
:102480000880832088700C20C8700120F5E70020A8
:10249000AA49C88148837047A949488370470128E1
:1024A00002D002280ED106E00121A44A9183002225
:1024B000A249CA8307E00021A04A918301229F49D3
:1024C000CA8300E000BF00BF704710B500249B48DE
:1024D000408B012803D09948408B022814D197489B
:1024E000408B9749488300F0D9FE9549498B884233
:1024F0000AD09349488B00F0D4FE00F0D5FE9049F5
:10250000488BFFF7CCFF0124204610BD8C49C881C1
:102510007047012802D002280ED106E00121874A27
:102520001182002285494A8207E00021834A1182F4
:10253000012282494A8200E000BF00BF704710B507
:1025400000247E48C089012803D07C48C089022825
:1025500017D17A48C0897A49C88100F043FE78498A
:10256000C98988420DD001207449C8817449C8893D
:1025700000F03BFE00F03CFE7149C889FFF7C9FF3F
:102580000124204610BD70B505460E462C460DB9F7
:10259000002070BD41F2701020808220A0700220C7
:1025A000E07020460AF027FF0120F2E702460B46C2
:1025B00011460AB90020704741F27010088083204C
:1025C00088700220C8700120F5E770B505460E46F8
:1025D0002C460DB9002070BD4FF48C502080822015
:1025E000A0700420E07020460AF005FF0120F2E709
:1025F00010B504460E222146504820300CF06DFFE5
:1026000010BD10B504460E224C49203120460CF076
:1026100064FF10BD1FB500240020009001900290BF
:102620000390684600F096FE0E226946434820302B
:102630000CF027FF00B10124204604B010BDF8B50E
:1026400000240026FF2000903C4D203500BF0CE008
:1026500001226946284603F0D8F908B1012606E0B0
:102660006D1CFF200090601CC4B20E2CF0D300BF84
:102670003046F8BD3149888270473048808A7047BB
:1026800010B5002400F0D1FE2C49898A884200D080
:102690000124204610BD02460B4611460AB900200F
:1026A000704741F290100880832088700820C8701D
:1026B0000120F5E770B505460E462C460DB9002001
:1026C00070BD41F2901020808220A0700820E07040
:1026D00020460AF090FE0120F2E71A490A680260DB
:1026E0004A68426009890181704701B50422154991
:1026F000684603F019FA42F2200012490881124894
:102700000A6802604A6842600989018108BD10B503
:1027100000240A220B490C480CF0B3FE40B10A48D1
:1027200008490A6802604A684260098901810124F7
:10273000204610BD8E7D0020587D0020987D002011
:10274000C67D0020807E00208A7E0020002000219F
:1027500000BF0FE0F84A32F81120FF23B3EB122F2D
:1027600004D0F54A12F81120FF2A01D1002015E00B
:102770004A1CD1B20429EDDBEF4AD288FF23B3EB28
:10278000122F0AD0EC4A9279FF2A06D0EA4A12891F
:10279000A2F57F43FF3B00D1012000BF7047E7490E
:1027A000C8827047E548C08A704710B5002400F021
:1027B00098FEE249C98A884200D00124204610BD13
:1027C00002460B4611460AB9002070474FF48D505F
:1027D0000880832088700720C8700120F5E770B555
:1027E00005460E462C460DB9002070BD4FF48D50A5
:1027F00020808220A0700720E07020460AF0FBFDB8
:102800000120F2E710B54C21CD480CF0E5FE10BDDB
:10281000F0B587B005460E4600240020069014222D
:10282000C84901A80CF09EFE00274C21C4480CF0BA
:10283000D3FEC34A0021304603F01EF900BF28E052
:10284000A81C005D0011069006A803F00BF99DF886
:10285000180030304FF6FF7101EA0021B848083007
:1028600020F81410A81C005D00F00F00069006A8C8
:1028700003F0F8F8B248083030F814109DF818004A
:102880003030084481B2AE48083020F81410601C83
:10289000C4B2042CD4D343F23020A9490882A889B9
:1028A0000A2190FBF1F201FB12003030A9890A22C3
:1028B00091FBF2F1303100EB012081B2A04841825E
:1028C000A87B0A2190FBF1F0303000F53C5081B23A
:1028D0009B488182A87B0A2190FBF1F201FB120048
:1028E00030302F2101EB002081B29548C182E87B76
:1028F0000A2190FBF1F201FB12003030E97B0A2241
:1029000091FBF2F1303100EB012081B28C48018360
:10291000287C0A2190FBF1F0303000F5005081B2A4
:1029200087484183287C0A2190FBF1F201FB1200C9
:1029300030303A2101EB002081B281488183687CEC
:102940000A2190FBF1F201FB12003030697C0A226F
:1029500091FBF2F1303100EB012081B27848C18364
:1029600043F2302076490884A88A0A2190FBF1F2CC
:1029700001FB12003030A98A0A2291FBF2F13031BA
:1029800000EB012081B26E484184A87B0A2190FBB4
:10299000F1F0303000F53C5081B269488184A87D67
:1029A0000A2190FBF1F201FB120030302F2101EBE4
:1029B000002081B26248C184E87D0A2190FBF1F2D7
:1029C00001FB12003030E97D0A2291FBF2F1303137
:1029D00000EB012081B25A480185287E0A2190FB34
:1029E000F1F0303000F5005081B255484185287E25
:1029F0000A2190FBF1F201FB120030303A2101EB89
:102A0000002081B24E488185687E0A2190FBF1F258
:102A100001FB12003030697E0A2291FBF2F1303165
:102A200000EB012081B24648C185A87A401CC7B29C
:102A3000434A30320021384603F01EF8A88B0128A3
:102A400002D002283AD11BE0002416E03E4911F8DA
:102A5000140001023A48323020F8141030F8140003
:102A60003949022202FB04114978084481B23448F2
:102A7000323020F81410601CC4B2032CE6D31EE0E0
:102A8000002418E03048801D10F8140001022C4882
:102A9000323020F8141030F814102B48801D022218
:102AA00002FB04004078084481B22548323020F807
:102AB0001410601CC4B2032CE4D300E000BF00BFBC
:102AC00068780C285FD2DFE800F05E060C131A214C
:102AD000282F4349505714221C4901A80CF042FDED
:102AE00051E014221949143101A80CF03BFD4AE0D1
:102AF00014221649283101A80CF034FD43E01422B9
:102B000012493C3101A80CF02DFD3CE014220F4984
:102B1000503101A80CF026FD35E014220B49643138
:102B200001A80CF01FFD2EE014220849783101A8FD
:102B30000CF018FD27E00000807E0020987D00202A
:102B4000F47D002060FA0008440D0020500D0020A4
:102B50001422FC4901A80CF005FD14E01422F949E7
:102B6000143101A80CF0FEFC0DE01422F5492831C7
:102B700001A80CF0F7FC06E01422F2493C3101A850
:102B80000CF0F0FC00BF00BF002414E001A911F814
:102B900014000102EC4820F8141030F8140001A9C8
:102BA000022202FB04114978084481B2E64820F869
:102BB0001410601CC4B20A2CE8D307B0F0BD30B5C5
:102BC00000230022E0493839262300BF09E00C88A1
:102BD000241200F8014B11F8025B00F8015B541C51
:102BE000E2B29A42F3DB30BD70B505460E462C4684
:102BF0000DB9002070BD4FF4804000EB062020800E
:102C00008220A0702620E070201DFFF7D8FF012051
:102C1000F0E72DE9F04107460C4615461E461821FF
:102C2000CA480CF0D9FCC94A0021384602F024FFFA
:102C3000C64A08320021204602F01EFFC3488582A2
:102C4000C682BDE8F081C14A928A0280BF4AD28A18
:102C50000A80704730B500230022BC490C2300BF16
:102C600009E00C88241200F8014B11F8025B00F80F
:102C7000015B541CE2B29A42F3DB30BD70B50546ED
:102C80000E462C460DB9002070BD41F2B0102080D8
:102C90008220A0700C20E070201DFFF7DBFF0120D8
:102CA000F2E702460B4611460AB90020704741F28E
:102CB000B0100880832088700C20C8700120F5E7D0
:102CC0000020A34908807047A1480088704770B56C
:102CD00005460E462C460DB9002070BD4FF48E50AF
:102CE00020808220A0700120E07020460AF083FB43
:102CF0000120F2E702460B4611460AB90020704750
:102D00004FF48E500880832088700120C87000BF67
:102D1000F5E700208F49088370478E48008B704785
:102D200070B505460E462C460DB9002070BD41F227
:102D3000D01020808220A0700120E07020460AF090
:102D40005AFB0120F2E702460B4611460AB9002061
:102D5000704741F2D0100880832088700120C8702D
:102D600000BFF5E77C480021016001207A49088016
:102D70007047794909680160704770B505460E468D
:102D80002C460DB9002070BD4FF48F50208082205A
:102D9000A0700220E07020460AF02DFB0120F2E72F
:102DA00002460B4611460AB9002070474FF48F5077
:102DB0000880832088700220C8700120F5E701B5E3
:102DC0006648BDF80010018008BD70B505460E4686
:102DD0002C460DB9002070BD41F2F01020808220F9
:102DE000A0700120E07020460AF005FB0120F2E708
:102DF00010B520230021024600BF05E003EB0324A9
:102E00001480921C4C1CE1B20829F7DB10BD0FB4F2
:102E100010B5142202A952480CF05FFB10BC5DF8FB
:102E200014FB70B50C46002300224D490A2300BF55
:102E300009E00D882D1200F8015B11F8026B00F813
:102E4000016B551CEAB29A42F3DB70BD70B50546C2
:102E50000E462C460DB9002070BD4FF4A1502080C5
:102E60008220A0700A20E0703146201DFFF7D9FFB4
:102E70000120F1E710B5002400BF18E0394830F810
:102E8000140090B137480088A0F57F41FF390CD07D
:102E9000344830F81400A0F50051203905D02A221A
:102EA00008212F480CF090FB03E0601CC4B2042CF6
:102EB000E4DB00BF00241BE02A48083030F814008F
:102EC000A0B128480089A0F57F41FF390ED02548E0
:102ED000083030F81400A0F50051203906D02A221D
:102EE00008211F4808300CF06FFB03E0601CC4B2DF
:102EF000042CE1DB00BF10BD0FB410B5142202A9F1
:102F000018480CF0EAFA10BC5DF814FB10B5044642
:102F10001422144920460CF0E0FA10BD70B50546A5
:102F20000E462C460DB9002070BD4FF4A2502080F3
:102F30008220A0700A20E07020460AF05CFA01208E
:102F4000F2E70000DC0D00202C7E0020407E0020F7
:102F5000320E0020987D0020340E0020380E002014
:102F60006C7E0020587E002002460B4611460AB9AE
:102F7000002070474FF4A2500880832088700A20F8
:102F8000C8700120F5E708B58B4800880090BDF8AF
:102F90000010084608BD01B58748BDF80010018043
:102FA00008BD0FB410B51A2202A984480CF095FA96
:102FB0001A22824982480CF090FA10BC5DF814FB8A
:102FC00010B504461A227D4920460CF086FA10BD41
:102FD00010B500240A227A4978480CF052FA58B108
:102FE000774876490A6802604A6842600989018127
:102FF0000120714908700124204610BD00200021E5
:1030000000BF0FE06D4A32F81120FF23B3EB122FFF
:1030100004D06A4A12F81120FF2A01D1002015E0DD
:103020004A1CD1B20429EDDB644AD288FF23B3EBFA
:10303000122F0AD0614A9279FF2A06D05F4A12897C
:10304000A2F57F43FF3B00D1012000BF704710B5C0
:1030500000240A225A490A3158480A300CF011FA61
:1030600068B157480A3055490A310A6802604A680F
:1030700042600989018101204F494870012420469E
:1030800010BD0020002100BF11E04C4A0A3232F886
:103090001120FF23B3EB122F05D0484A0A3212F851
:1030A0001120FF2A01D1002015E04A1CD1B20429C9
:1030B000EBDB424A128AFF23B3EB122F0AD03F4ABE
:1030C000127CFF2A06D03D4A528AA2F57F43FF3B7D
:1030D00000D1012000BF704770B505460E462C4652
:1030E0000DB9002070BD4FF4A35020808220A07045
:1030F0000D20E07020460AF07EF90120F2E702463A
:103100000B4611460AB9002070474FF4A3500880BF
:10311000832088700D20C8700120F5E701B529488B
:10312000BDF80010018008BD08B526480088009051
:10313000BDF80010084608BD70B505460E462C4681
:103140000DB9002070BD4FF4A45020808220A070E3
:103150000120E07020460AF04EF90120F2E7024615
:103160000B4611460AB9002070474FF4A45008805E
:10317000832088700120C87000BFF5E708B51248A9
:103180000068009008BD01B50F480099016008BDB6
:1031900070B505460E462C460DB9002070BD4FF4A3
:1031A000A55020808220A0700220E07020460AF006
:1031B00022F90120F2E700003A0E0020947E002060
:1031C000AE7E00203C0E00203E0E0020F748F8495D
:1031D0000860F84848607047F54A06CAC0E900121E
:1031E00070477047F44800887047F349088070477B
:1031F00008B5F1480088ADF800000221684602F0E9
:1032000091FB8DF8020003226946132002F0D4FFDF
:103210000322694640F2134009F09EF908BD1CB52F
:10322000032201A9132002F0D2FF0322694640F2D3
:10323000134009F0A6F9022101A802F073FB9DF8E2
:10324000061088420ED19DF804009DF8051000EB91
:103250000120D9490880032201A940F2134009F056
:103260007BF91AE00221684602F05CFB9DF802102F
:1032700088420DD19DF800009DF8011000EB01205F
:10328000CD49088003226946132002F095FF04E02F
:103290000120C9490880FFF7ABFF1CBDC648C088A4
:1032A0007047C549C880704708B5C348C088ADF8A5
:1032B00000000221684602F035FB8DF8020003226F
:1032C00069461C2002F078FF0322694640F21C4048
:1032D00009F042F908BD1CB5032201A91C2002F027
:1032E00076FF0322694640F21C4009F04AF90221A8
:1032F00001A802F017FB9DF8061088420ED19DF838
:1033000004009DF8051000EB0120AB49C8800322A2
:1033100001A940F21C4009F01FF91AE00221684699
:1033200002F000FB9DF8021088420DD19DF80000CC
:103330009DF8011000EB01209F49C88003226946D7
:103340001C2002F039FF04E002209B49C880FFF7EF
:10335000ABFF1CBD10B504460E229749083120462C
:103360000CF0BBF810BD10B504460E222146924861
:1033700008300CF0B2F810BD1FB50E228E4908318E
:1033800068460CF0AAF80E21684602F0CBFA8DF8D8
:103390000E000F2269461F2002F00EFF0F22694621
:1033A00040F21F4009F0D8F81FBD00B589B00F22C8
:1033B00005A91F2002F00BFF0F2201A940F21F40B8
:1033C00009F0DFF80E2105A802F0ACFA9DF82210F2
:1033D00088420CD10E2205A9774808300CF07DF800
:1033E0000F2205A940F21F4009F0B6F81BE00E219C
:1033F00001A802F097FA9DF8121088420BD10E2214
:1034000001A96D4808300CF068F80F2201A91F20AF
:1034100002F0D2FE07E020220E21674808300CF0AF
:10342000D3F8FFF7A9FF09B000BD63484088704793
:1034300061494880704708B55F484088ADF8000092
:103440000221684602F06EFA8DF8020003226946F6
:10345000162002F0B1FE0322694640F2164009F040
:103460007BF808BD1CB5032201A9162002F0AFFEAF
:103470000322694640F2164009F083F8022101A8B0
:1034800002F050FA9DF8061088420ED19DF8040013
:103490009DF8051000EB012047494880032201A94F
:1034A00040F2164009F058F81AE00221684602F08E
:1034B00039FA9DF8021088420DD19DF800009DF860
:1034C000011000EB01203C49488003226946162088
:1034D00002F072FE04E0642037494880FFF7ABFF3A
:1034E0001CBD35488088704733498880704708B5CF
:1034F00031488088ADF800000221684602F012FAD7
:103500008DF8020003226946192002F055FE0322BD
:10351000694640F2194009F01FF808BD1CB50322A6
:1035200001A9192002F053FE0322694640F2194016
:1035300009F027F8022101A802F0F4F99DF806101D
:1035400088420ED19DF804009DF8051000EB012083
:1035500019498880032201A940F2194008F0FCFFB4
:103560001AE00221684602F0DDF99DF80210884257
:103570000DD19DF800009DF8011000EB01200E49CF
:10358000888003226946192002F016FE04E0962086
:1035900009498880FFF7ABFF1CBD10B50446102217
:1035A000064920460BF099FF10BD000066665A429E
:1035B000480E002000002041C87E0020DE7E002052
:1035C0001FB5102269468C480BF087FF1FBD00B560
:1035D00085B01022884968460BF07FFF10216846AD
:1035E00002F0A0F98DF81000112269462E2002F099
:1035F000E3FD1122694640F22E4008F0ADFF05B010
:1036000000BD00B58FB07D4803C8CDE903017B49FB
:10361000083103C9CDE9010111220AA92E2002F0C7
:10362000D6FD112205A940F22E4008F0AAFF102174
:103630000AA802F077F99DF8381088420FD16E4839
:103640000A9901600B9941600C9981600D99C160E4
:1036500011220AA940F22E4008F07EFF21E010213D
:1036600005A802F05FF99DF8241088420ED1624847
:103670000599016006994160079981600899C160C8
:10368000112205A92E2002F097FD0AE05A4803995D
:10369000016004994160019981600299C160FFF75E
:1036A00096FF0FB000BD08B555480068009008BDF2
:1036B00001B553480099016008BD1CB55048006829
:1036C00000900421684602F02DF98DF804000522CF
:1036D00069463F2002F070FD0522694640F23F40F6
:1036E00008F03AFF1CBD00B585B046A00068009008
:1036F000052203A93F2002F06AFD052201A940F23C
:103700003F4008F03EFF042103A802F00BF99DF8AA
:103710001010884209D13A4803990160052203A993
:1037200040F23F4008F018FF15E0042101A802F024
:10373000F9F89DF80810884208D1314801990160D4
:10374000052201A93F2002F037FD04E02C48009932
:103750000160FFF7B2FF0021294801F073F805B0BE
:1037600000BD10B586B00020029003900490059033
:10377000FEF733FEFEF78BFEFFF734FD0446FEF73F
:10378000C5FEFFF78BFD0446FEF786FEFFF72AFD18
:103790000446FEF7BEFEFFF781FD0446FEF77FFEFE
:1037A000FFF743FE0446FEF765FF02A8FFF7D2FDD0
:1037B00002A8FEF71DFFFFF794FE0446FEF7EFFF99
:1037C000FFF771FF0190FEF790FF06B010BD10B536
:1037D000FFF7FCFCFFF723FDFFF77DFDFFF742FE3F
:1037E000FFF7E3FDFFF79AFE01F041FBFFF709FF4A
:1037F000FFF779FF10BD0000DE7E002074FA00089C
:10380000440E0020FFFFFFFFFA487047FA48704758
:10381000FA48704710B50B21F8480BF0FFFE00F096
:1038200061FFF749086010BDF64800210160416062
:10383000816070470021002000BF06E0EE4A525C24
:103840000AB9421CD0B24A1CD1B20C29F6DB70472F
:103850000021002000BF07E0E74A525C022A01D1A4
:10386000421CD0B24A1CD1B20C29F5DB70470021B2
:10387000002000BF0BE0E04A525C012A03D0DE4A80
:10388000525C022A01D1421CD0B24A1CD1B20C298E
:10389000F1DB704770B50024FFF723FE0646FFF703
:1038A000D7FF054600BF0DE0D348005D012807D1D2
:1038B000D348006850F82400B04201DB681CC5B250
:1038C000601CC4B20C2CEFDB284670BD3EB504462C
:1038D0000025CD4A07CA8DE80700CA48407A042867
:1038E00066D1CA4850F8240030B1012812D002280D
:1038F00037D003285BD14AE0C54901EB84000021A1
:1039000002F02BF8C14850F82400401CBF4941F890
:1039100024004CE0BE4901EB84004FF4FA6102F050
:103920001CF8C0B9BB4901EB8400002102F015F876
:103930002146002001F046FE0320019002946946D2
:10394000022009F03FFEB14850F82400401CAF4966
:1039500041F8240004E00020AC4941F8240001258E
:1039600025E0AC4901EB8400642101F0F6FF012859
:103970000CD1A84901EB8400002101F0EEFFA3481F
:1039800050F82400401CA14941F824000FE02046D3
:1039900001F010FE012805D100209C4941F82400C7
:1039A000012503E00120994941F8240000BF00E00F
:1039B000012528463EBD3EB50446934A0C3207CA4F
:1039C0008DE80700944901EB8400C82101F0C5FF90
:1039D00001280AD1904901EB8400002101F0BDFFCC
:1039E00002946946022009F0EDFD3EBD3EB5044655
:1039F0000025854A183207CA8DE80700874850F825
:103A0000240030B1012812D0022837D003285BD11E
:103A10004AE0834901EB8400002101F09EFF7F48CA
:103A200050F82400401C7D4941F824004CE07C49BA
:103A300001EB84004FF4FA6101F08FFFC0B97949BE
:103A400001EB8400002101F088FF2146012001F0F4
:103A5000B9FD0320019002946946022009F0B2FDED
:103A60006E4850F82400401C6C4941F8240004E0E2
:103A700000206A4941F82400012525E0694901EB4D
:103A80008400642101F069FF01280CD1654901EB34
:103A90008400002101F061FF604850F82400401CC0
:103AA0005E4941F824000FE0204601F083FD012823
:103AB00005D10020594941F82400012503E00120E7
:103AC000564941F8240000BF00BF28463EBD10B54E
:103AD000002400BF54E0544800680121A14008427E
:103AE00049D05248005D10B1012843D10EE0204674
:103AF00009F005FA4E4901EB8400002101F02DFF89
:103B00004A48005D401C4949085533E0484901EBEB
:103B10008400C82101F021FF58B3204609F04FFA74
:103B2000204609F0ACFA38B13F4800680121A140B5
:103B300088433D4908601CE03E4901EB840040F2A7
:103B4000F91101F00AFFA0B13B48015D005D401C86
:103B5000394A1055032909DB00201146085532481F
:103B600001680120A04081432F48016000202F49B7
:103B7000085500BF02E000202C490855601CC4B263
:103B80000C2CA8DB2848006810B92C48264948604E
:103B900010BD2548006818B1AFF2CD002249486039
:103BA000704770B5044600252548005D092873D28A
:103BB000DFE800F0054CC9FAF9F8F7F6F500204601
:103BC000FFF784FE012813D1204609F098F91D491A
:103BD00001EB8400002101F0C0FE1B4901EB8400D1
:103BE000002101F0BAFE1648005D401C144908553A
:103BF00005E20000F08E0020C892002040930020D3
:103C0000640E0020808F002084FA00088C8F002032
:103C1000BC8F0020EC8F00201C9000204C900020D6
:103C20007C900020AC900020680E0020DC900020EA
:103C3000E89000201891002048910020933B000854
:103C4000549100206091002090910020FA4901EBEE
:103C50008400C82101F081FE002873D0204609F0BD
:103C6000AEF9204609F00BFA40B3F448407A012837
:103C700013D1F348005D401CF1490855F14901EBAF
:103C80008400002101F069FEEF48006820F0010087
:103C9000401CED49086055E0B0E10520E8490855B1
:103CA000EA4901EB8400002101F057FEE648006874
:103CB00020F00200801CE449086043E0E44901EB85
:103CC000840040F2F91101F048FE00283AD0E148A2
:103CD000015D005D401CDF4A105503292FDB0020E9
:103CE00011460855FF20DC490855D448407A012880
:103CF0000BD101250F20FEF7D8F8D348006820F03B
:103D000080008030D04908600BE002251020FEF7CB
:103D1000CCF8CD48006820F4806000F58060CA4986
:103D20000860C649CB7A887A4A1C294601F00AF90C
:103D3000FFF77AFDC9480078401EC8490870002086
:103D4000BF4908555BE1BF4901EB84004EF6602195
:103D500001F003FE48BB2046FFF72DFEBE48005D84
:103D600050B1BF4901EB8400002101F0F6FDB448D9
:103D7000005D401CB2490855204609F080F958BB47
:103D8000B548005D40BBB64901EB8400002101F05D
:103D9000E4FDAB48005D401CA94908551CE022E148
:103DA00013E1E8E0C3E054E017E0FFE7FE20AA4992
:103DB00008550220A1494872A8480078401EA7492A
:103DC000087000209E4908559F48006820F48040F4
:103DD00000F580409C49086011E1A14901EB840095
:103DE00045F2F05101F0B9FDE8B92046FFF7E3FDD7
:103DF000204609F044F958BB994901EB84000021A1
:103E000001F0ABFD974901EB8400002101F0A5FD15
:103E10002046FFF7EBFD01281AD18948005D401CC0
:103E20008749085514E0FE208B4908550220834934
:103E300048728A480078401E8849087000208049EE
:103E400008558148006820F0200020307E49086035
:103E5000D5E0844901EB840041F2883101F07DFD19
:103E6000002860D07C48005D012803D07A48005DBE
:103E700002280DD103257149CB7A887A4A1C29463C
:103E800001F060F803206D4948720020C87246E0D6
:103E90007148005D90B904256849CB7A887A4A1C3C
:103EA000294601F04FF81720FDF7FFFF664800682C
:103EB00020F0400040306449086022E06648005D20
:103EC00003280BD06448005D042807D06248005DD9
:103ED000052803D06048005D072812D10525574901
:103EE000CB7A887A4A1C294601F02CF81B20FDF772
:103EF000DCFF5548006820F4805000F5805052499E
:103F00000860FFF791FC55480078401E534908703F
:103F1000554800680121A14008435349086000202A
:103F20004749085502E02046FFF745FD67E047494D
:103F300001EB840049F6404101F00FFDA8B920468D
:103F400009F09DF8B0B9414901EB8400002101F06E
:103F500004FD444901EB8400002101F0FEFC3848D7
:103F6000005D401C3649085504E03548005D801C62
:103F70003349085543E03B4901EB840040F6B83132
:103F800001F0EBFC00B33448005DC0B108252B49BB
:103F9000CB7A887A4A1C294600F0D4FF1D20FDF711
:103FA00084FF2748005D801C254908552648006885
:103FB00020F4005000F500502349086004E0204838
:103FC000005D401C1E49085519E009251B49CB7AA4
:103FD000887A4A1C294600F0B5FF1948005D401C4C
:103FE000174908550BE0FFF71FFC1C480078401EDE
:103FF0001A49087000201249085500E000BF00BFB0
:1040000070BD70B5044600251848005D10B1012848
:104010007FD12FE0204609F032F858B9FD200E4933
:1040200008551248005D401C1049085500211048F1
:1040300001F093FC6EE0000060910020808F002072
:1040400054910020CC910020BC0900205C920020FB
:1040500090910020C0910020C89200204093002041
:10406000FC9100202C920020680E00208C920020F1
:10407000989200204FF47A71F74801F06EFC012805
:1040800043D10021F44801F068FCF448005DFD28AC
:104090003ED0F248005D012803D0F048005D0228C0
:1040A0000AD10625EE49CB7A887A4A1C294600F0C7
:1040B00049FF1C20FDF7F9FEE848005D03280BD0FE
:1040C000E648005D042807D0E448005D052803D0D9
:1040D000E248005D07280AD10725E149CB7A887AB2
:1040E0004A1C294600F02EFF1E20FDF7DEFEFFF7DA
:1040F0009BFB0020DB490855DB4800680121A140FB
:104100000843D949086003E003E02046FFF753FC69
:1041100000E000BF00BF70BD70B50025002400BFE7
:104120000CE004EB4400D14901EB8000407A012807
:1041300002D10125284670BD601CC4B20C2CF0DBF6
:10414000FFF778FB012808DBFFF7A4FBC8490978D3
:10415000491C884201DB032500E002252846EAE7E6
:104160000021002000BF0AE001EB4102BF4B03EB3E
:104170008202527A0AB9084603E04A1CD1B20C29DD
:10418000F2DB00BF704770B50126B51E0024FFF7B3
:1041900051FB28B1FFF77EFBB5490978884202DA66
:1041A0000026304670BDB3480078401CC4B206E01B
:1041B000AA48005D08B965B203E0601CC4B20C2CCB
:1041C000F6DB00BF681C0FD1002406E0A348005DA9
:1041D00008B965B207E0601CC4B2A64890F90000B7
:1041E000401C8442F2DB00BF01209D494872CD7221
:1041F000A04805703046D5E710B5024600210120E1
:1042000000BF1AE001EB4103984C04EB83035B7A97
:10421000042B06D001EB410304EB83035B7A022BF2
:1042200009D101EB4103914C04EB8303DB7A934208
:1042300001D1002003E04B1CD9B20C29E2DB00BF06
:1042400010BD2DE9F041FFF74CF906464FF0FF3560
:104250000024FFF71FFB88B98149887A00234A1C94
:104260000B2100F06FFEFFF7DFFA81480078401E57
:104270007F4908701420FDF718FE75E0FFF7E8FA93
:1042800001282ADB7C480078401CC4B20BE073484C
:10429000005D022805D12046FFF7AEFF08B165B2E8
:1042A00003E0601CC4B20C2CF1DB00BF681C4BD1D6
:1042B00000240BE06948005D022805D12046FFF785
:1042C0009BFF08B165B207E0601CC4B26A4890F970
:1042D0000000401C8442EDDB36E067480078401C5B
:1042E000C4B211E05D48005D01280BD1634800684D
:1042F00050F82400B04205DB2046FFF77DFF08B1EF
:1043000065B203E0601CC4B20C2CEBDB00BF681C80
:104310001AD1002411E05148005D01280BD1574803
:10432000006850F82400B04205DB2046FFF764FF28
:1043300008B165B207E0601CC4B24F4890F90000B4
:10434000401C8442E7DB00BF042045494872CD721F
:10435000FEF748FF07464249887A3A460C2100F0AA
:10436000D8FD4548057000BFBDE8F08110B5044692
:10437000012C06D0022C0AD0032C0DD0042C0ED117
:1043800000E000BF3649C87AFFF70BFC1CE0344957
:10439000C87AFFF736FE17E0FFF753FF14E0FFF788
:1043A000F2FE80B92E49887A00234A1C0A2100F0C7
:1043B000C9FDFFF739FA2E480078401E2C490870D5
:1043C0001420FDF772FD00BF00BF10BD2848807AA1
:1043D00070472748407A704710B5002008F0C4FEA7
:1043E00030B127480078401C40B22549087005E0EC
:1043F00023480078401E40B221490870204890F9B7
:10440000000005280CDB05201D490870002008F07D
:10441000F9FE002008F008FF012015490872887293
:10442000174890F9000010F1050F05DCFB20144936
:10443000087000200E498872012008F095FE50B1E6
:10444000FEF72CFF01281FD10E480078401C40B217
:104450000C4908701EE017E098920020C8920020D6
:10446000808F00208C920020680E0020F08E0020AB
:1044700040930020500E0020510E0020640E0020BA
:10448000520E0020530E00208C480078401E40B28F
:104490008A490870894890F9000005280BDB05203F
:1044A00086490870002008F0ADFE002008F0BCFE30
:1044B000012083494872814890F9000010F1050FEE
:1044C00005DCFB207D49087000207D4948727D484D
:1044D00090F9000010F1050F0EDC784890F900000B
:1044E00010F1050F08DC002008F095FE002008F010
:1044F000A0FE00207249087210BD10B5022008F01D
:1045000033FE30B170480078401C40B26E490870EC
:1045100005E06D480078401E40B26B4908706A485B
:1045200090F90000052805DB052067490870012087
:1045300063498880644890F9000010F1050F05DC9C
:10454000FB206149087000205D49888010BD5C48EF
:10455000808870475A48C088704770B50024FBF7C0
:10456000E6FE054600BF08E00120A040284202D038
:10457000FC2056490855601CC4B20C2CF4DB70BDFD
:1045800070B5002400254E48407801282BD125E045
:1045900002F02CFA25B1012D0CD0022D1DD118E00E
:1045A00000214B4801F0D9F9204608F0A8FC681C0E
:1045B000C5B212E0C821464801F0CFF940B1002150
:1045C000434801F0CAF9204608F0F9FC681CC5B25E
:1045D00003E0601CC4B2002500BF00BF0C2CD7DB79
:1045E00000203749487070BD10B5354880780028E4
:1045F00033D03848007820B1012810D002282BD1C0
:1046000020E02F49C87808F07AFC0021324801F0F8
:10461000A4F930480078401C2E4908701CE0C821DD
:104620002D4801F09AF960B100212B4801F095F96D
:104630002349C87808F0C3FC26480078401C254967
:10464000087009E000201E49887000211C48C170D4
:1046500000202049087000BF00BF10BDAFF6CD207C
:104660001E494860FFF7D6F84FF47A7001F08DF9D3
:1046700000BF1A494868804702F0B8F900F034F8E2
:1046800000F07FF808F098F901F0C8FAFFF7A4FEEF
:10469000FFF776FFFFF7A8FFFFF72FFFFFF75DFF9C
:1046A000142001F072F9E4E710B504230C4A00214C
:1046B000AFF2570001F0B5FD10BD0000530E002011
:1046C00040930020520E0020540E0020C89200207B
:1046D000580E0020600E00205C0E0020680E0020A6
:1046E000EC8E0020544870477FB5002400200290D3
:1046F0000390FFF78BF805464FF47A714F4801F0AD
:104700002CF960B300214D4801F027F900BF24E0E7
:10471000285D012802D0285D02281CD102A801F0E2
:1047200077FEDDE9020101F0B1FE064605F1180051
:1047300000EBC400016800914068014601900098B8
:1047400001F0A4FE311A3C48303050F824000844EF
:10475000394941F82400601CC4B20C2CD8DB7FBD61
:1047600010B504469022344920460AF0B6FE10BD2A
:1047700010B50446902221462F4830300AF0ADFE95
:1047800010BD00B5B3B0FFF772F8012818DB40F692
:10479000B8312B4801F0E1F890B10021284801F030
:1047A000DCF80DF10600FFF7DBFFA5208DF8040013
:1047B000AA208DF80500C82201A9002007F0CCFE30
:1047C00033B000BD01E0411E88B20028FBDC704719
:1047D00010B5044607E0601E84B241F28830FFF74E
:1047E000F1FF02F003F9002CF5DC10BD00B5B3B009
:1047F0001920FFF7EDFFC82201A9002007F0C1FE34
:104800009DF80500AA2809D11920FFF7E1FF0DF155
:104810000600FFF7ADFF1920FFF7DAFF33B000BD48
:104820000EB500208DF800008DF8010002226946C7
:1048300007F092FE0EBD00004C930020700E002089
:10484000740E002001EB4102F74B03EB8202036878
:104850001360704701EB4102F44B03EB4202036823
:104860001360704710B504461822F14920460AF03B
:1048700034FE10BD70B59CB005460E462C4614B9EA
:1048800000201CB070BD02202070608043F23040D8
:10489000A0803222214601A80AF01FFE0120F0E785
:1048A00070B59CB004460E462546A879E0490871CB
:1048B0003222294601A80AF010FE01201CB070BD6A
:1048C00070B59CB005460E462C4614B900201CB0AD
:1048D00070BD022020700920608043F23240A08029
:1048E000D3484079E071D248407902280DDAD048A7
:1048F000407900EB4000CC4901EB80010A6804F1EB
:104900000800A2608988A18106E0C749CA6804F14D
:104910000800A260098AA1814FF03202214601A855
:104920000AF0DBFD0120D2E730B502460B46114606
:1049300009B9002030BD022008700920488043F2E8
:1049400039408880BA484079C871B948407902280E
:104950000DDAB748407900EB4000B34C04EB80041B
:10496000D4F8065001F108008D6064898C814FF005
:104970000100DFE770B59CB004460E462546E87995
:10498000AB4908713222294601A80AF0A6FD012090
:104990001CB070BD30B502460B46114609B9002067
:1049A00030BD022008700920488043F235408880DD
:1049B0009F484079C8719E48407902280CDA9C488B
:1049C000407900EB4000994C04EB4004256801F16C
:1049D00008008D60A4888C814FF00100E0E770B57D
:1049E0009CB005460E462C4614B900201CB070BD84
:1049F000022020700420608043F23340A0808C4865
:104A00004079E0718A48817921723222214601A8D9
:104A10000AF063FD0120E9E770B59CB005460E463B
:104A20002C46207A824908710846007959280FD10E
:104A3000A079497988420BD1E0797D49897988420A
:104A400006D1102204F109017948C01D0AF045FD84
:104A50003222214601A80AF040FD01201CB070BDA1
:104A600010B502460B46114609B9002010BD0220C0
:104A700008700820488043F2384088806C484079AC
:104A8000C8716B4884790C720446D4F80740C1F8A9
:104A900009400120EAE710B502460B461146087AA4
:104AA000592811D18879624C6479A04208D1C8791B
:104AB0005F4CA479A04203D159205D4C207106E0DF
:104AC0004E205B4C207102E0087A594C2071012085
:104AD00010BD57480079592801D1012070470020A6
:104AE000FCE70020524908717047514A507191719A
:104AF000704710B504464E48407904EBC4014D4A56
:104B000002F811004A48807904EBC40102EB41012C
:104B1000487004EBC40102EB4101881C1022444997
:104B2000C91D0AF0DAFC10BD10B504464422414903
:104B300020460AF017FD10BD10B544213D480AF08B
:104B40006DFD10BD30B587B004463B4A07CA04ABC3
:104B500007C3002500200290039024B9182134488F
:104B60000AF03AFDC6E03248007830B1012831D071
:104B700002286ED003287DD198E002E0052000F0E5
:104B800004FF0021012008F080FD0028F6D128480C
:104B90004088402809D126480079592805D1244861
:104BA0000078401C2249087013E0214840884028C2
:104BB00005D11F480079332801D1012509E04020A3
:104BC00005901B4948800020087104A9012008F0C5
:104BD000F9FC8EE002E0052000F0D7FE0021012064
:104BE00008F053FD0028F6D111484088802825D1CF
:104BF0000F480079592821D16846FBF7CDFBDDE944
:104C00000001CDE902019DF808002D2805D10848D2
:104C10000078801C064908701AE005480078401C9E
:104C20000349087014E014E0780E0020900E002074
:104C3000DC930020F4930020A8FA0008802005905F
:104C4000744948800020087104A9012008F0BAFCCA
:104C50004FE002E0052000F098FE0021012008F05E
:104C600014FD0028F6D16B484088B0F5807F07D14D
:104C7000684800E03BE00079592801D1042514E0A0
:104C800064484088B0F5807F04D16248007908B15B
:104C900002250AE04FF4807005905E4948800020AC
:104CA000087104A9012008F08DFC22E002E0052033
:104CB00000F06BFE0021012008F0E7FC0028F6D18F
:104CC00054484088B0F5006F05D152480079592802
:104CD00001D105250AE04FF4006005904D49488058
:104CE0000020087104A9012008F06CFC01E00325F4
:104CF00000BF00BF284607B030BD3EB50446464A57
:104D000007CA8DE80700002524B9182141480AF098
:104D100063FC7CE03F48007820B1012825D00228C0
:104D200072D145E002E0052000F02FFE00210120B5
:104D300008F0ABFC0028F6D136484088402809D15D
:104D400034480079592805D132480078401C31494F
:104D5000087009E0402001902E4948800020087129
:104D60006946012008F02EFC50E002E0052000F02A
:104D70000CFE0021012008F088FC0028F6D125480F
:104D80004088802809D123480079592805D1214835
:104D90000078401C1F49087009E0802001901D49DF
:104DA0004880002008716946012008F00BFC2DE0C6
:104DB00002E0052000F0E9FD0021012008F065FC7B
:104DC0000028F6D113484088B0F5007F05D111487E
:104DD0000079592801D1042514E00E484088B0F527
:104DE000007F04D10B48007908B102250AE04FF496
:104DF00080600190074948800020087169460120C1
:104E000008F0E0FB02E0FFE7032500BF00BF2846F3
:104E10003EBD0000DC930020B4FA0008A0480088E2
:104E200041F28831884201DD084670479C4800887D
:104E3000FBE700209A490880704738B504462012E5
:104E40008DF80000E0B28DF801000221684600F004
:104E500069FD8DF8020003226946102001F0ACF9CB
:104E6000032269464FF4826007F076FB38BD1CB51B
:104E7000032201A9102001F0AAF9032269464FF488
:104E8000826007F07EFB022101A800F04BFD9DF837
:104E9000061088420ED19DF805009DF8041000EB25
:104EA00001207F490880032201A94FF4826007F0A6
:104EB00053FB2DE00221684600F034FD9DF80210FE
:104EC00088420DD19DF801009DF8001000EB0120F3
:104ED0007349088003226946102001F06DF917E03C
:104EE00000206F4908808DF804008DF8050002212C
:104EF00001A800F017FD8DF80600032201A910207B
:104F000001F05AF9032201A94FF4826007F024FB53
:104F10001CBD70B504460D461646A520614901EB3F
:104F2000441108705F4800EB441045705D4901EB87
:104F3000441101F10C0001F06BFA5A4800EB4410E7
:104F4000868370BD2DE9F04104460D4616461F4686
:104F5000544800EB44104570524800EB44108772EF
:104F6000504901EB441101F1140001F051FA4D4890
:104F700000EB4410316840F8021F71684160494AF3
:104F800002EB44121E32474B03EB4413D21A91B288
:104F9000444A02EB441000F0C5FC424901EB4411C5
:104FA000887702E0032000F0F0FC3F4800780128F9
:104FB000F8D001203C4908703948008841F2883116
:104FC00090FBF1F201FB1200002101EB00283549B2
:104FD00001EB44102022414608F094FF00203249A2
:104FE00008702F480088401C2D490880084600881A
:104FF00042F21071884205DB29480088A0EB61006D
:105000002749088026480088FFF717FF254901EB4C
:10501000441020210AF0E0FABDE8F08170B50546A1
:105020000C461F480088854233DA41F288308542B9
:105030002FDA1B480088401B401E85B202E0032087
:1050400000F0A3FC194800780128F8D00120174986
:10505000087041F2883095FBF0F100FB11500021FF
:1050600001EB002620223146204608F025FF0020D3
:105070000E4908702078A5280BD104F11E00001BF2
:1050800081B2204600F04EFCA17F884201D1012070
:1050900070BD202120460AF09FFA0020F8E70000AA
:1050A0009E0E00207C9400209C0E00209D0E00206F
:1050B00010B5FEF7ABFBF9490860FFF713FBF849A1
:1050C000086010BD10B50446F4480068005DFF2874
:1050D00072D0F2480068005DFE28F9D004EB84002D
:1050E000F04901EB80008089B0F5AF7F0BDB062033
:1050F000EA4909680855012004EB8401E94A02EBFA
:105100008101487209E00020E4490968085504EB70
:105110008401E44A02EB81014872E0480068005DC6
:10512000012804D0DD480068005D02280DD1DE486A
:10513000005D50B90120DC490855D849096818318B
:1051400001EBC40001F064F91EE0D4480068005D82
:10515000D0B90020D4490855D0480068183000EB79
:10516000C400002101604160CD490968603101EB54
:10517000840041F2883100F0F0FB28B10021C848DA
:105180000068303040F82410C4480068005D0628EC
:105190004DD104EB8400C34901EB8000008AC0B903
:1051A00004EB840001EB8000408A012805D002282E
:1051B00004D003280CD106E039E000BF0120B74934
:1051C0000968085504E00220B4490968085500BF81
:1051D0002DE004EB8400B34901EB8000007CC0F3B8
:1051E000401020B10320AD49096808551FE004EBC9
:1051F0008400AC4901EB8000008AC0F3402020B15C
:105200000420A6490968085511E004EB8400A5496B
:1052100001EB8000007C10F0010F04D005209F49B5
:105220000968085503E007209C490968085510BD26
:105230002DE9F843064689461546002400200090D3
:1052400000BF00BF301900880090BDF8000000B218
:10525000002811DDBDF8000000F0FAFB07464FF40E
:105260007A7007FB00F84FEA183005EB85018D4A8C
:1052700002EB8101488106E0002005EB8501894AA7
:1052800002EB81014881A41C301900880090BDF810
:10529000000000F0DDFB0746C7EB07104FEA40189F
:1052A000C8F30F3105EB85007E4A02EB8000818157
:1052B000A41C301900880090BDF8000000F0C8FB65
:1052C0000746C7EB07104FEA4018C8F30F3105EB4C
:1052D0008500744A02EB8000C181A41C241D301992
:1052E00000880090BDF8000000F0B2FB05EB8501DE
:1052F0006C4A02EB81010882A41CA41D30190088AD
:105300000090BDF8000000F0A3FB05EB8501654AA5
:1053100002EB8101488200BF2846FFF7D3FEBDE8BB
:10532000F8832DE9F84306468846144600250020F8
:1053300000900027701900880090BDF8000000F070
:1053400087FB0746AD1C04EB8400564931F820006A
:10535000B84207D1012004EB8401524A02EB8101DB
:10536000887106E0002004EB84014E4A02EB8101C3
:1053700088712D1D701900880090BDF8000000F0A4
:1053800067FB0746AD1C04EB8400464901EB800037
:105390004088B84207D1012004EB8401414A02EB66
:1053A0008101C87106E0002004EB84013D4A02EB54
:1053B0008101C871BDE8F8832DE9F84305468846A8
:1053C00014460026002000900027A81900880090AD
:1053D000BDF8000000F03CFB0746B61C04EB84005F
:1053E000304901EB80008088B84207D1012004EBEE
:1053F00084012C4A02EB8101087206E0002004EBD4
:105400008401284A02EB81010872BDE8F88370B577
:1054100005460C461646022C0FD0082C07D0142C3B
:1054200011D1324621462846FFF702FF0BE03246F3
:1054300021462846FFF775FF05E0324621462846FB
:10544000FFF7BAFF00BF00BF70BD10B5CC2807D171
:10545000012201EB8103134C04EB83031A7200BF9A
:1054600000BF10BD70B505460E462C460CB9002095
:1054700070BD6078042802D010280BD105E0227896
:10548000A179E01DFFF7C3FF04E021786088FFF7F2
:10549000DCFF00BF00BF0120EAE70000A00E0020F3
:1054A000A40E0020FC950020EC96002002460B463E
:1054B00011460AB9002070470B70042048704FF461
:1054C000C87048800A2088800120F4E702460B4615
:1054D00011460AB9002070470B7004204870C8209C
:1054E0004880042088800120F5E702460B461146DB
:1054F0000AB9002070470B7004204870CC20488007
:105500000120888000BFF5E72DE9F04106460D46F1
:105510001446DA4930460AF003F907460AF0E0F883
:1055200004EB8401D64A22F82100D64928460AF025
:10553000F7F807460AF0D4F804EB8401D04A02EBEE
:1055400081014880BDE8F081F8B507460E463C462B
:1055500000250020009007B9F8BD2670102060706B
:10556000C82060800420A0800820A07106EB86017E
:10557000C34A32F8210000F06BFA0090E01D284485
:10558000BDF800100180AD1CE01D28440021016021
:105590002D1D06EB8601BA4A02EB8101488800F016
:1055A00057FA0090E01D2844BDF800100180AD1CA2
:1055B0000120D1E7014601EB8100B14A02EB8000F6
:1055C000007A704710B5012807D1012201EB810351
:1055D000AB4C04EB83039A8006E0002201EB8103CD
:1055E000A74C04EB83039A80002201EB8103A44CB7
:1055F00004EB83031A7210BDF8B505460E462C461F
:105600000020009005B9F8BD267010206070CC20F5
:1056100060800120A0800220A07106EB8601984ADC
:1056200002EB8101888800F013FA0090BDF80000B9
:10563000A4F807000120E6E710B586B004A8FDF73E
:10564000CBFD914A07CA01AB07C30C248F480078F1
:10565000002877D103F0EBFC8D49086000208D49CC
:1056600008709DE000208C49087032E08A4800787C
:1056700000EB8000824901EB8000807938B18648D8
:10568000007800EB800001EB8000C079E0B901F008
:10569000ADF9814A1278DDE90401FFF735FF0220F8
:1056A00002907D480078039001A9022007F08AFF4C
:1056B00004E001F09BF9022000F067F900210120CD
:1056C00007F0E3FF0028F4D173480078401C7249CA
:1056D000087071480078A042C8DB6F48007800EB82
:1056E0008000674901EB8000807938B16A48007812
:1056F00000EB800001EB8000C07910B93C2000F085
:1057000044F90020644908702DE06348007800EBFC
:1057100080005B4901EB8000807938B15E480078F9
:1057200000EB800001EB8000C079B8B901F05EF9B0
:105730000420029058480078039001A9022007F045
:1057400041FF05E096E001F051F9022000F01DF95B
:105750000021012007F099FF0028F4D14E4800787D
:10576000401C4D4908704C480078A042CDDB4A48A7
:10577000007800EB8000424901EB8000807938B16D
:105780004548007800EB800001EB8000C07910B93B
:105790003C2000F0FAF83F480078401C3D49087072
:1057A0003C4800780328FFF65DAF002039490870B7
:1057B00052E000203849087039E03748007800EBA3
:1057C00080002F4901EB8000007A58BB01F00EF9F0
:1057D0003148007800EB8000294901EB8000407AD5
:1057E000012805D12C4801780120FFF7EBFE04E0E9
:1057F000294801780020FFF7E5FE032002902648A3
:105800000078039001A9022007F0DCFE04E001F01B
:10581000EDF8022000F0B9F80021012007F035FF73
:105820000028F4D11C480078401C1B4908701A4815
:105830000078A042C1DB1848007800EB80001049D6
:1058400001EB8000007A10B9502000F09EF811485A
:105850000078401C0F4908700E4800780328A8DB28
:1058600001200A49087003F0E2FB09490968401A5F
:10587000074908600548007806B010BD00002041C7
:10588000FC9500200000C842C0FA0008AC0E0020C1
:10589000A80E0020AD0E0020AE0E002010B5002393
:1058A00000220B46022203704270FF248470C470F1
:1058B00010BD70B505460E462C460DB9002070BDD2
:1058C000A02020808220A0700220E0703146201DA0
:1058D000FFF7E4FF0120F2E770B502460C46FF2512
:1058E000FF2309E012F8010B80EA0501B848405C8B
:1058F00080EA0305B748435C2000A4F10106B4B276
:10590000F0D143EA052070BD30B5024600201346B1
:1059100002E013F8014B60400C00A1F10105A9B2AF
:10592000F7D130BD10B50246A52003E012F8014BB7
:105930002318D8B20B00A1F10104A1B2F6D110BD19
:105940000146002041B14FF4FA724A434FF47A7392
:10595000B2FBF3F000B90120704770B504460D4664
:10596000002625B903F063FB2060012070BD2846A6
:10597000FFF7E6FF064603F05AFB2168401AB042E3
:1059800001D90120F2E70020F0E770B5044604B920
:1059900070BD4FF47A70B4FBF0F100FB1145B4FB1D
:1059A000F0F0C6B22B4632460021084603F0BCFA9E
:1059B00000BFEDE730B54FF47A7290FBF2F230326F
:1059C0004FF47F4303EA0223642290FBF2F20A249D
:1059D00092FBF4F504FB152230321A440A800A22A5
:1059E00090FBF2F20A2392FBF3F403FB1422303211
:1059F0004FF47F4303EA02230A2290FBF2F402FBF6
:105A0000140230321A444A8030BDF0B503460024F7
:105A1000012000BF09E013F8016B11F8017BBE42C1
:105A200001D0002003E0651CACB29442F3DB00BF60
:105A3000F0BD10B5002208E003881B12047803EBC8
:105A400004230380801C531CDAB28A42F4DB10BDAD
:105A500001464FF47F4000EA0120C1F307221044C1
:105A600080B27047014608780A2803DB0F2801DC62
:105A7000C21DD0B2087070472DE9F04186B0804653
:105A80000D4616463022142101A809F09DFD474617
:105A9000002400BFAC4202D10DB1601CC4B20A2088
:105AA000B7FBF0F100FB117030302146621CD4B21C
:105AB00001AA50540A20B7FBF0F707B901E0002F04
:105AC000E8D100BFAC4203DC002D01DDA81CC4B24C
:105AD00015B12E2001A9485511E0601EC4B201A8DD
